{
	"Demo.sol": {
		"DemoContract": {
			"abi": [
				{
					"inputs": [],
					"stateMutability": "nonpayable",
					"type": "constructor"
				},
				{
					"inputs": [],
					"name": "getAge",
					"outputs": [
						{
							"internalType": "uint8",
							"name": "",
							"type": "uint8"
						}
					],
					"stateMutability": "view",
					"type": "function"
				},
				{
					"inputs": [],
					"name": "getName",
					"outputs": [
						{
							"internalType": "string",
							"name": "",
							"type": "string"
						}
					],
					"stateMutability": "view",
					"type": "function"
				},
				{
					"inputs": [],
					"name": "owner",
					"outputs": [
						{
							"internalType": "address",
							"name": "",
							"type": "address"
						}
					],
					"stateMutability": "view",
					"type": "function"
				},
				{
					"inputs": [],
					"name": "pay",
					"outputs": [],
					"stateMutability": "payable",
					"type": "function"
				},
				{
					"inputs": [
						{
							"internalType": "address",
							"name": "",
							"type": "address"
						}
					],
					"name": "payments",
					"outputs": [
						{
							"internalType": "uint256",
							"name": "",
							"type": "uint256"
						}
					],
					"stateMutability": "view",
					"type": "function"
				},
				{
					"inputs": [
						{
							"internalType": "uint8",
							"name": "_age",
							"type": "uint8"
						}
					],
					"name": "setAge",
					"outputs": [],
					"stateMutability": "nonpayable",
					"type": "function"
				},
				{
					"inputs": [
						{
							"internalType": "string",
							"name": "_name",
							"type": "string"
						}
					],
					"name": "setName",
					"outputs": [],
					"stateMutability": "nonpayable",
					"type": "function"
				},
				{
					"inputs": [
						{
							"internalType": "address payable",
							"name": "_to",
							"type": "address"
						}
					],
					"name": "withdrawAll",
					"outputs": [],
					"stateMutability": "nonpayable",
					"type": "function"
				}
			],
			"devdoc": {
				"kind": "dev",
				"methods": {},
				"version": 1
			},
			"evm": {
				"assembly": "    /* \"Demo.sol\":66:810  contract DemoContract {... */\n  mstore(0x40, 0x80)\n    /* \"Demo.sol\":222:273  constructor() {... */\n  callvalue\n  dup1\n  iszero\n  tag_1\n  jumpi\n  0x00\n  dup1\n  revert\ntag_1:\n  pop\n    /* \"Demo.sol\":255:265  msg.sender */\n  caller\n    /* \"Demo.sol\":247:252  owner */\n  0x01\n  dup1\n    /* \"Demo.sol\":247:265  owner = msg.sender */\n  0x0100\n  exp\n  dup2\n  sload\n  dup2\n  0xffffffffffffffffffffffffffffffffffffffff\n  mul\n  not\n  and\n  swap1\n  dup4\n  0xffffffffffffffffffffffffffffffffffffffff\n  and\n  mul\n  or\n  swap1\n  sstore\n  pop\n    /* \"Demo.sol\":66:810  contract DemoContract {... */\n  dataSize(sub_0)\n  dup1\n  dataOffset(sub_0)\n  0x00\n  codecopy\n  0x00\n  return\nstop\n\nsub_0: assembly {\n        /* \"Demo.sol\":66:810  contract DemoContract {... */\n      mstore(0x40, 0x80)\n      jumpi(tag_1, lt(calldatasize, 0x04))\n      shr(0xe0, calldataload(0x00))\n      dup1\n      0x967e6e65\n      gt\n      tag_10\n      jumpi\n      dup1\n      0x967e6e65\n      eq\n      tag_6\n      jumpi\n      dup1\n      0xc47f0027\n      eq\n      tag_7\n      jumpi\n      dup1\n      0xe2982c21\n      eq\n      tag_8\n      jumpi\n      dup1\n      0xfa09e630\n      eq\n      tag_9\n      jumpi\n      jump(tag_1)\n    tag_10:\n      dup1\n      0x17d7de7c\n      eq\n      tag_2\n      jumpi\n      dup1\n      0x1b9265b8\n      eq\n      tag_3\n      jumpi\n      dup1\n      0x5b0c8d70\n      eq\n      tag_4\n      jumpi\n      dup1\n      0x8da5cb5b\n      eq\n      tag_5\n      jumpi\n    tag_1:\n      0x00\n      dup1\n      revert\n        /* \"Demo.sol\":365:450  function getName() public view returns (string memory) {... */\n    tag_2:\n      callvalue\n      dup1\n      iszero\n      tag_11\n      jumpi\n      0x00\n      dup1\n      revert\n    tag_11:\n      pop\n      tag_12\n      tag_13\n      jump\t// in\n    tag_12:\n      mload(0x40)\n      tag_14\n      swap2\n      swap1\n      tag_15\n      jump\t// in\n    tag_14:\n      mload(0x40)\n      dup1\n      swap2\n      sub\n      swap1\n      return\n        /* \"Demo.sol\":613:694  function pay() public payable {... */\n    tag_3:\n      tag_16\n      tag_17\n      jump\t// in\n    tag_16:\n      stop\n        /* \"Demo.sol\":458:522  function setAge(uint8 _age) public {... */\n    tag_4:\n      callvalue\n      dup1\n      iszero\n      tag_18\n      jumpi\n      0x00\n      dup1\n      revert\n    tag_18:\n      pop\n      tag_19\n      0x04\n      dup1\n      calldatasize\n      sub\n      dup2\n      add\n      swap1\n      tag_20\n      swap2\n      swap1\n      tag_21\n      jump\t// in\n    tag_20:\n      tag_22\n      jump\t// in\n    tag_19:\n      stop\n        /* \"Demo.sol\":145:165  address public owner */\n    tag_5:\n      callvalue\n      dup1\n      iszero\n      tag_23\n      jumpi\n      0x00\n      dup1\n      revert\n    tag_23:\n      pop\n      tag_24\n      tag_25\n      jump\t// in\n    tag_24:\n      mload(0x40)\n      tag_26\n      swap2\n      swap1\n      tag_27\n      jump\t// in\n    tag_26:\n      mload(0x40)\n      dup1\n      swap2\n      sub\n      swap1\n      return\n        /* \"Demo.sol\":530:605  function getAge() public view returns (uint8) {... */\n    tag_6:\n      callvalue\n      dup1\n      iszero\n      tag_28\n      jumpi\n      0x00\n      dup1\n      revert\n    tag_28:\n      pop\n      tag_29\n      tag_30\n      jump\t// in\n    tag_29:\n      mload(0x40)\n      tag_31\n      swap2\n      swap1\n      tag_32\n      jump\t// in\n    tag_31:\n      mload(0x40)\n      dup1\n      swap2\n      sub\n      swap1\n      return\n        /* \"Demo.sol\":281:357  function setName(string memory _name) public {... */\n    tag_7:\n      callvalue\n      dup1\n      iszero\n      tag_33\n      jumpi\n      0x00\n      dup1\n      revert\n    tag_33:\n      pop\n      tag_34\n      0x04\n      dup1\n      calldatasize\n      sub\n      dup2\n      add\n      swap1\n      tag_35\n      swap2\n      swap1\n      tag_36\n      jump\t// in\n    tag_35:\n      tag_37\n      jump\t// in\n    tag_34:\n      stop\n        /* \"Demo.sol\":172:213  mapping (address => uint) public payments */\n    tag_8:\n      callvalue\n      dup1\n      iszero\n      tag_38\n      jumpi\n      0x00\n      dup1\n      revert\n    tag_38:\n      pop\n      tag_39\n      0x04\n      dup1\n      calldatasize\n      sub\n      dup2\n      add\n      swap1\n      tag_40\n      swap2\n      swap1\n      tag_41\n      jump\t// in\n    tag_40:\n      tag_42\n      jump\t// in\n    tag_39:\n      mload(0x40)\n      tag_43\n      swap2\n      swap1\n      tag_44\n      jump\t// in\n    tag_43:\n      mload(0x40)\n      dup1\n      swap2\n      sub\n      swap1\n      return\n        /* \"Demo.sol\":702:807  function withdrawAll(address payable _to) external {... */\n    tag_9:\n      callvalue\n      dup1\n      iszero\n      tag_45\n      jumpi\n      0x00\n      dup1\n      revert\n    tag_45:\n      pop\n      tag_46\n      0x04\n      dup1\n      calldatasize\n      sub\n      dup2\n      add\n      swap1\n      tag_47\n      swap2\n      swap1\n      tag_48\n      jump\t// in\n    tag_47:\n      tag_49\n      jump\t// in\n    tag_46:\n      stop\n        /* \"Demo.sol\":365:450  function getName() public view returns (string memory) {... */\n    tag_13:\n        /* \"Demo.sol\":405:418  string memory */\n      0x60\n        /* \"Demo.sol\":438:442  name */\n      0x00\n        /* \"Demo.sol\":431:442  return name */\n      dup1\n      sload\n      tag_51\n      swap1\n      tag_52\n      jump\t// in\n    tag_51:\n      dup1\n      0x1f\n      add\n      0x20\n      dup1\n      swap2\n      div\n      mul\n      0x20\n      add\n      mload(0x40)\n      swap1\n      dup2\n      add\n      0x40\n      mstore\n      dup1\n      swap3\n      swap2\n      swap1\n      dup2\n      dup2\n      mstore\n      0x20\n      add\n      dup3\n      dup1\n      sload\n      tag_53\n      swap1\n      tag_52\n      jump\t// in\n    tag_53:\n      dup1\n      iszero\n      tag_54\n      jumpi\n      dup1\n      0x1f\n      lt\n      tag_55\n      jumpi\n      0x0100\n      dup1\n      dup4\n      sload\n      div\n      mul\n      dup4\n      mstore\n      swap2\n      0x20\n      add\n      swap2\n      jump(tag_54)\n    tag_55:\n      dup3\n      add\n      swap2\n      swap1\n      0x00\n      mstore\n      keccak256(0x00, 0x20)\n      swap1\n    tag_56:\n      dup2\n      sload\n      dup2\n      mstore\n      swap1\n      0x01\n      add\n      swap1\n      0x20\n      add\n      dup1\n      dup4\n      gt\n      tag_56\n      jumpi\n      dup3\n      swap1\n      sub\n      0x1f\n      and\n      dup3\n      add\n      swap2\n    tag_54:\n      pop\n      pop\n      pop\n      pop\n      pop\n      swap1\n      pop\n        /* \"Demo.sol\":365:450  function getName() public view returns (string memory) {... */\n      swap1\n      jump\t// out\n        /* \"Demo.sol\":613:694  function pay() public payable {... */\n    tag_17:\n        /* \"Demo.sol\":677:686  msg.value */\n      callvalue\n        /* \"Demo.sol\":654:662  payments */\n      0x02\n        /* \"Demo.sol\":654:674  payments[msg.sender] */\n      0x00\n        /* \"Demo.sol\":663:673  msg.sender */\n      caller\n        /* \"Demo.sol\":654:674  payments[msg.sender] */\n      0xffffffffffffffffffffffffffffffffffffffff\n      and\n      0xffffffffffffffffffffffffffffffffffffffff\n      and\n      dup2\n      mstore\n      0x20\n      add\n      swap1\n      dup2\n      mstore\n      0x20\n      add\n      0x00\n      keccak256\n        /* \"Demo.sol\":654:686  payments[msg.sender] = msg.value */\n      dup2\n      swap1\n      sstore\n      pop\n        /* \"Demo.sol\":613:694  function pay() public payable {... */\n      jump\t// out\n        /* \"Demo.sol\":458:522  function setAge(uint8 _age) public {... */\n    tag_22:\n        /* \"Demo.sol\":510:514  _age */\n      dup1\n        /* \"Demo.sol\":504:507  age */\n      0x01\n      0x00\n        /* \"Demo.sol\":504:514  age = _age */\n      0x0100\n      exp\n      dup2\n      sload\n      dup2\n      0xff\n      mul\n      not\n      and\n      swap1\n      dup4\n      0xff\n      and\n      mul\n      or\n      swap1\n      sstore\n      pop\n        /* \"Demo.sol\":458:522  function setAge(uint8 _age) public {... */\n      pop\n      jump\t// out\n        /* \"Demo.sol\":145:165  address public owner */\n    tag_25:\n      0x01\n      dup1\n      sload\n      swap1\n      0x0100\n      exp\n      swap1\n      div\n      0xffffffffffffffffffffffffffffffffffffffff\n      and\n      dup2\n      jump\t// out\n        /* \"Demo.sol\":530:605  function getAge() public view returns (uint8) {... */\n    tag_30:\n        /* \"Demo.sol\":569:574  uint8 */\n      0x00\n        /* \"Demo.sol\":594:597  age */\n      0x01\n      0x00\n      swap1\n      sload\n      swap1\n      0x0100\n      exp\n      swap1\n      div\n      0xff\n      and\n        /* \"Demo.sol\":587:597  return age */\n      swap1\n      pop\n        /* \"Demo.sol\":530:605  function getAge() public view returns (uint8) {... */\n      swap1\n      jump\t// out\n        /* \"Demo.sol\":281:357  function setName(string memory _name) public {... */\n    tag_37:\n        /* \"Demo.sol\":344:349  _name */\n      dup1\n        /* \"Demo.sol\":337:341  name */\n      0x00\n        /* \"Demo.sol\":337:349  name = _name */\n      swap1\n      dup2\n      tag_61\n      swap2\n      swap1\n      tag_62\n      jump\t// in\n    tag_61:\n      pop\n        /* \"Demo.sol\":281:357  function setName(string memory _name) public {... */\n      pop\n      jump\t// out\n        /* \"Demo.sol\":172:213  mapping (address => uint) public payments */\n    tag_42:\n      mstore(0x20, 0x02)\n      dup1\n      0x00\n      mstore\n      keccak256(0x00, 0x40)\n      0x00\n      swap2\n      pop\n      swap1\n      pop\n      sload\n      dup2\n      jump\t// out\n        /* \"Demo.sol\":702:807  function withdrawAll(address payable _to) external {... */\n    tag_49:\n        /* \"Demo.sol\":764:767  _to */\n      dup1\n        /* \"Demo.sol\":764:776  _to.transfer */\n      0xffffffffffffffffffffffffffffffffffffffff\n      and\n        /* \"Demo.sol\":764:799  _to.transfer(address(this).balance) */\n      0x08fc\n        /* \"Demo.sol\":777:798  address(this).balance */\n      selfbalance\n        /* \"Demo.sol\":764:799  _to.transfer(address(this).balance) */\n      swap1\n      dup2\n      iszero\n      mul\n      swap1\n      mload(0x40)\n      0x00\n      mload(0x40)\n      dup1\n      dup4\n      sub\n      dup2\n      dup6\n      dup9\n      dup9\n      call\n      swap4\n      pop\n      pop\n      pop\n      pop\n      iszero\n      dup1\n      iszero\n      tag_65\n      jumpi\n      returndatasize\n      0x00\n      dup1\n      returndatacopy\n      revert(0x00, returndatasize)\n    tag_65:\n      pop\n        /* \"Demo.sol\":702:807  function withdrawAll(address payable _to) external {... */\n      pop\n      jump\t// out\n        /* \"#utility.yul\":7:106   */\n    tag_66:\n        /* \"#utility.yul\":59:65   */\n      0x00\n        /* \"#utility.yul\":93:98   */\n      dup2\n        /* \"#utility.yul\":87:99   */\n      mload\n        /* \"#utility.yul\":77:99   */\n      swap1\n      pop\n        /* \"#utility.yul\":7:106   */\n      swap2\n      swap1\n      pop\n      jump\t// out\n        /* \"#utility.yul\":112:281   */\n    tag_67:\n        /* \"#utility.yul\":196:207   */\n      0x00\n        /* \"#utility.yul\":230:236   */\n      dup3\n        /* \"#utility.yul\":225:228   */\n      dup3\n        /* \"#utility.yul\":218:237   */\n      mstore\n        /* \"#utility.yul\":270:274   */\n      0x20\n        /* \"#utility.yul\":265:268   */\n      dup3\n        /* \"#utility.yul\":261:275   */\n      add\n        /* \"#utility.yul\":246:275   */\n      swap1\n      pop\n        /* \"#utility.yul\":112:281   */\n      swap3\n      swap2\n      pop\n      pop\n      jump\t// out\n        /* \"#utility.yul\":287:533   */\n    tag_68:\n        /* \"#utility.yul\":368:369   */\n      0x00\n        /* \"#utility.yul\":378:491   */\n    tag_117:\n        /* \"#utility.yul\":392:398   */\n      dup4\n        /* \"#utility.yul\":389:390   */\n      dup2\n        /* \"#utility.yul\":386:399   */\n      lt\n        /* \"#utility.yul\":378:491   */\n      iszero\n      tag_119\n      jumpi\n        /* \"#utility.yul\":477:478   */\n      dup1\n        /* \"#utility.yul\":472:475   */\n      dup3\n        /* \"#utility.yul\":468:479   */\n      add\n        /* \"#utility.yul\":462:480   */\n      mload\n        /* \"#utility.yul\":458:459   */\n      dup2\n        /* \"#utility.yul\":453:456   */\n      dup5\n        /* \"#utility.yul\":449:460   */\n      add\n        /* \"#utility.yul\":442:481   */\n      mstore\n        /* \"#utility.yul\":414:416   */\n      0x20\n        /* \"#utility.yul\":411:412   */\n      dup2\n        /* \"#utility.yul\":407:417   */\n      add\n        /* \"#utility.yul\":402:417   */\n      swap1\n      pop\n        /* \"#utility.yul\":378:491   */\n      jump(tag_117)\n    tag_119:\n        /* \"#utility.yul\":525:526   */\n      0x00\n        /* \"#utility.yul\":516:522   */\n      dup5\n        /* \"#utility.yul\":511:514   */\n      dup5\n        /* \"#utility.yul\":507:523   */\n      add\n        /* \"#utility.yul\":500:527   */\n      mstore\n        /* \"#utility.yul\":349:533   */\n      pop\n        /* \"#utility.yul\":287:533   */\n      pop\n      pop\n      pop\n      jump\t// out\n        /* \"#utility.yul\":539:641   */\n    tag_69:\n        /* \"#utility.yul\":580:586   */\n      0x00\n        /* \"#utility.yul\":631:633   */\n      0x1f\n        /* \"#utility.yul\":627:634   */\n      not\n        /* \"#utility.yul\":622:624   */\n      0x1f\n        /* \"#utility.yul\":615:620   */\n      dup4\n        /* \"#utility.yul\":611:625   */\n      add\n        /* \"#utility.yul\":607:635   */\n      and\n        /* \"#utility.yul\":597:635   */\n      swap1\n      pop\n        /* \"#utility.yul\":539:641   */\n      swap2\n      swap1\n      pop\n      jump\t// out\n        /* \"#utility.yul\":647:1024   */\n    tag_70:\n        /* \"#utility.yul\":735:738   */\n      0x00\n        /* \"#utility.yul\":763:802   */\n      tag_122\n        /* \"#utility.yul\":796:801   */\n      dup3\n        /* \"#utility.yul\":763:802   */\n      tag_66\n      jump\t// in\n    tag_122:\n        /* \"#utility.yul\":818:889   */\n      tag_123\n        /* \"#utility.yul\":882:888   */\n      dup2\n        /* \"#utility.yul\":877:880   */\n      dup6\n        /* \"#utility.yul\":818:889   */\n      tag_67\n      jump\t// in\n    tag_123:\n        /* \"#utility.yul\":811:889   */\n      swap4\n      pop\n        /* \"#utility.yul\":898:963   */\n      tag_124\n        /* \"#utility.yul\":956:962   */\n      dup2\n        /* \"#utility.yul\":951:954   */\n      dup6\n        /* \"#utility.yul\":944:948   */\n      0x20\n        /* \"#utility.yul\":937:942   */\n      dup7\n        /* \"#utility.yul\":933:949   */\n      add\n        /* \"#utility.yul\":898:963   */\n      tag_68\n      jump\t// in\n    tag_124:\n        /* \"#utility.yul\":988:1017   */\n      tag_125\n        /* \"#utility.yul\":1010:1016   */\n      dup2\n        /* \"#utility.yul\":988:1017   */\n      tag_69\n      jump\t// in\n    tag_125:\n        /* \"#utility.yul\":983:986   */\n      dup5\n        /* \"#utility.yul\":979:1018   */\n      add\n        /* \"#utility.yul\":972:1018   */\n      swap2\n      pop\n        /* \"#utility.yul\":739:1024   */\n      pop\n        /* \"#utility.yul\":647:1024   */\n      swap3\n      swap2\n      pop\n      pop\n      jump\t// out\n        /* \"#utility.yul\":1030:1343   */\n    tag_15:\n        /* \"#utility.yul\":1143:1147   */\n      0x00\n        /* \"#utility.yul\":1181:1183   */\n      0x20\n        /* \"#utility.yul\":1170:1179   */\n      dup3\n        /* \"#utility.yul\":1166:1184   */\n      add\n        /* \"#utility.yul\":1158:1184   */\n      swap1\n      pop\n        /* \"#utility.yul\":1230:1239   */\n      dup2\n        /* \"#utility.yul\":1224:1228   */\n      dup2\n        /* \"#utility.yul\":1220:1240   */\n      sub\n        /* \"#utility.yul\":1216:1217   */\n      0x00\n        /* \"#utility.yul\":1205:1214   */\n      dup4\n        /* \"#utility.yul\":1201:1218   */\n      add\n        /* \"#utility.yul\":1194:1241   */\n      mstore\n        /* \"#utility.yul\":1258:1336   */\n      tag_127\n        /* \"#utility.yul\":1331:1335   */\n      dup2\n        /* \"#utility.yul\":1322:1328   */\n      dup5\n        /* \"#utility.yul\":1258:1336   */\n      tag_70\n      jump\t// in\n    tag_127:\n        /* \"#utility.yul\":1250:1336   */\n      swap1\n      pop\n        /* \"#utility.yul\":1030:1343   */\n      swap3\n      swap2\n      pop\n      pop\n      jump\t// out\n        /* \"#utility.yul\":1349:1424   */\n    tag_71:\n        /* \"#utility.yul\":1382:1388   */\n      0x00\n        /* \"#utility.yul\":1415:1417   */\n      0x40\n        /* \"#utility.yul\":1409:1418   */\n      mload\n        /* \"#utility.yul\":1399:1418   */\n      swap1\n      pop\n        /* \"#utility.yul\":1349:1424   */\n      swap1\n      jump\t// out\n        /* \"#utility.yul\":1430:1547   */\n    tag_72:\n        /* \"#utility.yul\":1539:1540   */\n      0x00\n        /* \"#utility.yul\":1536:1537   */\n      dup1\n        /* \"#utility.yul\":1529:1541   */\n      revert\n        /* \"#utility.yul\":1553:1670   */\n    tag_73:\n        /* \"#utility.yul\":1662:1663   */\n      0x00\n        /* \"#utility.yul\":1659:1660   */\n      dup1\n        /* \"#utility.yul\":1652:1664   */\n      revert\n        /* \"#utility.yul\":1676:1762   */\n    tag_74:\n        /* \"#utility.yul\":1711:1718   */\n      0x00\n        /* \"#utility.yul\":1751:1755   */\n      0xff\n        /* \"#utility.yul\":1744:1749   */\n      dup3\n        /* \"#utility.yul\":1740:1756   */\n      and\n        /* \"#utility.yul\":1729:1756   */\n      swap1\n      pop\n        /* \"#utility.yul\":1676:1762   */\n      swap2\n      swap1\n      pop\n      jump\t// out\n        /* \"#utility.yul\":1768:1886   */\n    tag_75:\n        /* \"#utility.yul\":1839:1861   */\n      tag_133\n        /* \"#utility.yul\":1855:1860   */\n      dup2\n        /* \"#utility.yul\":1839:1861   */\n      tag_74\n      jump\t// in\n    tag_133:\n        /* \"#utility.yul\":1832:1837   */\n      dup2\n        /* \"#utility.yul\":1829:1862   */\n      eq\n        /* \"#utility.yul\":1819:1880   */\n      tag_134\n      jumpi\n        /* \"#utility.yul\":1876:1877   */\n      0x00\n        /* \"#utility.yul\":1873:1874   */\n      dup1\n        /* \"#utility.yul\":1866:1878   */\n      revert\n        /* \"#utility.yul\":1819:1880   */\n    tag_134:\n        /* \"#utility.yul\":1768:1886   */\n      pop\n      jump\t// out\n        /* \"#utility.yul\":1892:2027   */\n    tag_76:\n        /* \"#utility.yul\":1936:1941   */\n      0x00\n        /* \"#utility.yul\":1974:1980   */\n      dup2\n        /* \"#utility.yul\":1961:1981   */\n      calldataload\n        /* \"#utility.yul\":1952:1981   */\n      swap1\n      pop\n        /* \"#utility.yul\":1990:2021   */\n      tag_136\n        /* \"#utility.yul\":2015:2020   */\n      dup2\n        /* \"#utility.yul\":1990:2021   */\n      tag_75\n      jump\t// in\n    tag_136:\n        /* \"#utility.yul\":1892:2027   */\n      swap3\n      swap2\n      pop\n      pop\n      jump\t// out\n        /* \"#utility.yul\":2033:2358   */\n    tag_21:\n        /* \"#utility.yul\":2090:2096   */\n      0x00\n        /* \"#utility.yul\":2139:2141   */\n      0x20\n        /* \"#utility.yul\":2127:2136   */\n      dup3\n        /* \"#utility.yul\":2118:2125   */\n      dup5\n        /* \"#utility.yul\":2114:2137   */\n      sub\n        /* \"#utility.yul\":2110:2142   */\n      slt\n        /* \"#utility.yul\":2107:2226   */\n      iszero\n      tag_138\n      jumpi\n        /* \"#utility.yul\":2145:2224   */\n      tag_139\n      tag_72\n      jump\t// in\n    tag_139:\n        /* \"#utility.yul\":2107:2226   */\n    tag_138:\n        /* \"#utility.yul\":2265:2266   */\n      0x00\n        /* \"#utility.yul\":2290:2341   */\n      tag_140\n        /* \"#utility.yul\":2333:2340   */\n      dup5\n        /* \"#utility.yul\":2324:2330   */\n      dup3\n        /* \"#utility.yul\":2313:2322   */\n      dup6\n        /* \"#utility.yul\":2309:2331   */\n      add\n        /* \"#utility.yul\":2290:2341   */\n      tag_76\n      jump\t// in\n    tag_140:\n        /* \"#utility.yul\":2280:2341   */\n      swap2\n      pop\n        /* \"#utility.yul\":2236:2351   */\n      pop\n        /* \"#utility.yul\":2033:2358   */\n      swap3\n      swap2\n      pop\n      pop\n      jump\t// out\n        /* \"#utility.yul\":2364:2490   */\n    tag_77:\n        /* \"#utility.yul\":2401:2408   */\n      0x00\n        /* \"#utility.yul\":2441:2483   */\n      0xffffffffffffffffffffffffffffffffffffffff\n        /* \"#utility.yul\":2434:2439   */\n      dup3\n        /* \"#utility.yul\":2430:2484   */\n      and\n        /* \"#utility.yul\":2419:2484   */\n      swap1\n      pop\n        /* \"#utility.yul\":2364:2490   */\n      swap2\n      swap1\n      pop\n      jump\t// out\n        /* \"#utility.yul\":2496:2592   */\n    tag_78:\n        /* \"#utility.yul\":2533:2540   */\n      0x00\n        /* \"#utility.yul\":2562:2586   */\n      tag_143\n        /* \"#utility.yul\":2580:2585   */\n      dup3\n        /* \"#utility.yul\":2562:2586   */\n      tag_77\n      jump\t// in\n    tag_143:\n        /* \"#utility.yul\":2551:2586   */\n      swap1\n      pop\n        /* \"#utility.yul\":2496:2592   */\n      swap2\n      swap1\n      pop\n      jump\t// out\n        /* \"#utility.yul\":2598:2716   */\n    tag_79:\n        /* \"#utility.yul\":2685:2709   */\n      tag_145\n        /* \"#utility.yul\":2703:2708   */\n      dup2\n        /* \"#utility.yul\":2685:2709   */\n      tag_78\n      jump\t// in\n    tag_145:\n        /* \"#utility.yul\":2680:2683   */\n      dup3\n        /* \"#utility.yul\":2673:2710   */\n      mstore\n        /* \"#utility.yul\":2598:2716   */\n      pop\n      pop\n      jump\t// out\n        /* \"#utility.yul\":2722:2944   */\n    tag_27:\n        /* \"#utility.yul\":2815:2819   */\n      0x00\n        /* \"#utility.yul\":2853:2855   */\n      0x20\n        /* \"#utility.yul\":2842:2851   */\n      dup3\n        /* \"#utility.yul\":2838:2856   */\n      add\n        /* \"#utility.yul\":2830:2856   */\n      swap1\n      pop\n        /* \"#utility.yul\":2866:2937   */\n      tag_147\n        /* \"#utility.yul\":2934:2935   */\n      0x00\n        /* \"#utility.yul\":2923:2932   */\n      dup4\n        /* \"#utility.yul\":2919:2936   */\n      add\n        /* \"#utility.yul\":2910:2916   */\n      dup5\n        /* \"#utility.yul\":2866:2937   */\n      tag_79\n      jump\t// in\n    tag_147:\n        /* \"#utility.yul\":2722:2944   */\n      swap3\n      swap2\n      pop\n      pop\n      jump\t// out\n        /* \"#utility.yul\":2950:3062   */\n    tag_80:\n        /* \"#utility.yul\":3033:3055   */\n      tag_149\n        /* \"#utility.yul\":3049:3054   */\n      dup2\n        /* \"#utility.yul\":3033:3055   */\n      tag_74\n      jump\t// in\n    tag_149:\n        /* \"#utility.yul\":3028:3031   */\n      dup3\n        /* \"#utility.yul\":3021:3056   */\n      mstore\n        /* \"#utility.yul\":2950:3062   */\n      pop\n      pop\n      jump\t// out\n        /* \"#utility.yul\":3068:3282   */\n    tag_32:\n        /* \"#utility.yul\":3157:3161   */\n      0x00\n        /* \"#utility.yul\":3195:3197   */\n      0x20\n        /* \"#utility.yul\":3184:3193   */\n      dup3\n        /* \"#utility.yul\":3180:3198   */\n      add\n        /* \"#utility.yul\":3172:3198   */\n      swap1\n      pop\n        /* \"#utility.yul\":3208:3275   */\n      tag_151\n        /* \"#utility.yul\":3272:3273   */\n      0x00\n        /* \"#utility.yul\":3261:3270   */\n      dup4\n        /* \"#utility.yul\":3257:3274   */\n      add\n        /* \"#utility.yul\":3248:3254   */\n      dup5\n        /* \"#utility.yul\":3208:3275   */\n      tag_80\n      jump\t// in\n    tag_151:\n        /* \"#utility.yul\":3068:3282   */\n      swap3\n      swap2\n      pop\n      pop\n      jump\t// out\n        /* \"#utility.yul\":3288:3405   */\n    tag_81:\n        /* \"#utility.yul\":3397:3398   */\n      0x00\n        /* \"#utility.yul\":3394:3395   */\n      dup1\n        /* \"#utility.yul\":3387:3399   */\n      revert\n        /* \"#utility.yul\":3411:3528   */\n    tag_82:\n        /* \"#utility.yul\":3520:3521   */\n      0x00\n        /* \"#utility.yul\":3517:3518   */\n      dup1\n        /* \"#utility.yul\":3510:3522   */\n      revert\n        /* \"#utility.yul\":3534:3714   */\n    tag_83:\n        /* \"#utility.yul\":3582:3659   */\n      0x4e487b7100000000000000000000000000000000000000000000000000000000\n        /* \"#utility.yul\":3579:3580   */\n      0x00\n        /* \"#utility.yul\":3572:3660   */\n      mstore\n        /* \"#utility.yul\":3679:3683   */\n      0x41\n        /* \"#utility.yul\":3676:3677   */\n      0x04\n        /* \"#utility.yul\":3669:3684   */\n      mstore\n        /* \"#utility.yul\":3703:3707   */\n      0x24\n        /* \"#utility.yul\":3700:3701   */\n      0x00\n        /* \"#utility.yul\":3693:3708   */\n      revert\n        /* \"#utility.yul\":3720:4001   */\n    tag_84:\n        /* \"#utility.yul\":3803:3830   */\n      tag_156\n        /* \"#utility.yul\":3825:3829   */\n      dup3\n        /* \"#utility.yul\":3803:3830   */\n      tag_69\n      jump\t// in\n    tag_156:\n        /* \"#utility.yul\":3795:3801   */\n      dup2\n        /* \"#utility.yul\":3791:3831   */\n      add\n        /* \"#utility.yul\":3933:3939   */\n      dup2\n        /* \"#utility.yul\":3921:3931   */\n      dup2\n        /* \"#utility.yul\":3918:3940   */\n      lt\n        /* \"#utility.yul\":3897:3915   */\n      0xffffffffffffffff\n        /* \"#utility.yul\":3885:3895   */\n      dup3\n        /* \"#utility.yul\":3882:3916   */\n      gt\n        /* \"#utility.yul\":3879:3941   */\n      or\n        /* \"#utility.yul\":3876:3964   */\n      iszero\n      tag_157\n      jumpi\n        /* \"#utility.yul\":3944:3962   */\n      tag_158\n      tag_83\n      jump\t// in\n    tag_158:\n        /* \"#utility.yul\":3876:3964   */\n    tag_157:\n        /* \"#utility.yul\":3984:3994   */\n      dup1\n        /* \"#utility.yul\":3980:3982   */\n      0x40\n        /* \"#utility.yul\":3973:3995   */\n      mstore\n        /* \"#utility.yul\":3763:4001   */\n      pop\n        /* \"#utility.yul\":3720:4001   */\n      pop\n      pop\n      jump\t// out\n        /* \"#utility.yul\":4007:4136   */\n    tag_85:\n        /* \"#utility.yul\":4041:4047   */\n      0x00\n        /* \"#utility.yul\":4068:4088   */\n      tag_160\n      tag_71\n      jump\t// in\n    tag_160:\n        /* \"#utility.yul\":4058:4088   */\n      swap1\n      pop\n        /* \"#utility.yul\":4097:4130   */\n      tag_161\n        /* \"#utility.yul\":4125:4129   */\n      dup3\n        /* \"#utility.yul\":4117:4123   */\n      dup3\n        /* \"#utility.yul\":4097:4130   */\n      tag_84\n      jump\t// in\n    tag_161:\n        /* \"#utility.yul\":4007:4136   */\n      swap2\n      swap1\n      pop\n      jump\t// out\n        /* \"#utility.yul\":4142:4450   */\n    tag_86:\n        /* \"#utility.yul\":4204:4208   */\n      0x00\n        /* \"#utility.yul\":4294:4312   */\n      0xffffffffffffffff\n        /* \"#utility.yul\":4286:4292   */\n      dup3\n        /* \"#utility.yul\":4283:4313   */\n      gt\n        /* \"#utility.yul\":4280:4336   */\n      iszero\n      tag_163\n      jumpi\n        /* \"#utility.yul\":4316:4334   */\n      tag_164\n      tag_83\n      jump\t// in\n    tag_164:\n        /* \"#utility.yul\":4280:4336   */\n    tag_163:\n        /* \"#utility.yul\":4354:4383   */\n      tag_165\n        /* \"#utility.yul\":4376:4382   */\n      dup3\n        /* \"#utility.yul\":4354:4383   */\n      tag_69\n      jump\t// in\n    tag_165:\n        /* \"#utility.yul\":4346:4383   */\n      swap1\n      pop\n        /* \"#utility.yul\":4438:4442   */\n      0x20\n        /* \"#utility.yul\":4432:4436   */\n      dup2\n        /* \"#utility.yul\":4428:4443   */\n      add\n        /* \"#utility.yul\":4420:4443   */\n      swap1\n      pop\n        /* \"#utility.yul\":4142:4450   */\n      swap2\n      swap1\n      pop\n      jump\t// out\n        /* \"#utility.yul\":4456:4602   */\n    tag_87:\n        /* \"#utility.yul\":4553:4559   */\n      dup3\n        /* \"#utility.yul\":4548:4551   */\n      dup2\n        /* \"#utility.yul\":4543:4546   */\n      dup4\n        /* \"#utility.yul\":4530:4560   */\n      calldatacopy\n        /* \"#utility.yul\":4594:4595   */\n      0x00\n        /* \"#utility.yul\":4585:4591   */\n      dup4\n        /* \"#utility.yul\":4580:4583   */\n      dup4\n        /* \"#utility.yul\":4576:4592   */\n      add\n        /* \"#utility.yul\":4569:4596   */\n      mstore\n        /* \"#utility.yul\":4456:4602   */\n      pop\n      pop\n      pop\n      jump\t// out\n        /* \"#utility.yul\":4608:5033   */\n    tag_88:\n        /* \"#utility.yul\":4686:4691   */\n      0x00\n        /* \"#utility.yul\":4711:4777   */\n      tag_168\n        /* \"#utility.yul\":4727:4776   */\n      tag_169\n        /* \"#utility.yul\":4769:4775   */\n      dup5\n        /* \"#utility.yul\":4727:4776   */\n      tag_86\n      jump\t// in\n    tag_169:\n        /* \"#utility.yul\":4711:4777   */\n      tag_85\n      jump\t// in\n    tag_168:\n        /* \"#utility.yul\":4702:4777   */\n      swap1\n      pop\n        /* \"#utility.yul\":4800:4806   */\n      dup3\n        /* \"#utility.yul\":4793:4798   */\n      dup2\n        /* \"#utility.yul\":4786:4807   */\n      mstore\n        /* \"#utility.yul\":4838:4842   */\n      0x20\n        /* \"#utility.yul\":4831:4836   */\n      dup2\n        /* \"#utility.yul\":4827:4843   */\n      add\n        /* \"#utility.yul\":4876:4879   */\n      dup5\n        /* \"#utility.yul\":4867:4873   */\n      dup5\n        /* \"#utility.yul\":4862:4865   */\n      dup5\n        /* \"#utility.yul\":4858:4874   */\n      add\n        /* \"#utility.yul\":4855:4880   */\n      gt\n        /* \"#utility.yul\":4852:4964   */\n      iszero\n      tag_170\n      jumpi\n        /* \"#utility.yul\":4883:4962   */\n      tag_171\n      tag_82\n      jump\t// in\n    tag_171:\n        /* \"#utility.yul\":4852:4964   */\n    tag_170:\n        /* \"#utility.yul\":4973:5027   */\n      tag_172\n        /* \"#utility.yul\":5020:5026   */\n      dup5\n        /* \"#utility.yul\":5015:5018   */\n      dup3\n        /* \"#utility.yul\":5010:5013   */\n      dup6\n        /* \"#utility.yul\":4973:5027   */\n      tag_87\n      jump\t// in\n    tag_172:\n        /* \"#utility.yul\":4692:5033   */\n      pop\n        /* \"#utility.yul\":4608:5033   */\n      swap4\n      swap3\n      pop\n      pop\n      pop\n      jump\t// out\n        /* \"#utility.yul\":5053:5393   */\n    tag_89:\n        /* \"#utility.yul\":5109:5114   */\n      0x00\n        /* \"#utility.yul\":5158:5161   */\n      dup3\n        /* \"#utility.yul\":5151:5155   */\n      0x1f\n        /* \"#utility.yul\":5143:5149   */\n      dup4\n        /* \"#utility.yul\":5139:5156   */\n      add\n        /* \"#utility.yul\":5135:5162   */\n      slt\n        /* \"#utility.yul\":5125:5247   */\n      tag_174\n      jumpi\n        /* \"#utility.yul\":5166:5245   */\n      tag_175\n      tag_81\n      jump\t// in\n    tag_175:\n        /* \"#utility.yul\":5125:5247   */\n    tag_174:\n        /* \"#utility.yul\":5283:5289   */\n      dup2\n        /* \"#utility.yul\":5270:5290   */\n      calldataload\n        /* \"#utility.yul\":5308:5387   */\n      tag_176\n        /* \"#utility.yul\":5383:5386   */\n      dup5\n        /* \"#utility.yul\":5375:5381   */\n      dup3\n        /* \"#utility.yul\":5368:5372   */\n      0x20\n        /* \"#utility.yul\":5360:5366   */\n      dup7\n        /* \"#utility.yul\":5356:5373   */\n      add\n        /* \"#utility.yul\":5308:5387   */\n      tag_88\n      jump\t// in\n    tag_176:\n        /* \"#utility.yul\":5299:5387   */\n      swap2\n      pop\n        /* \"#utility.yul\":5115:5393   */\n      pop\n        /* \"#utility.yul\":5053:5393   */\n      swap3\n      swap2\n      pop\n      pop\n      jump\t// out\n        /* \"#utility.yul\":5399:5908   */\n    tag_36:\n        /* \"#utility.yul\":5468:5474   */\n      0x00\n        /* \"#utility.yul\":5517:5519   */\n      0x20\n        /* \"#utility.yul\":5505:5514   */\n      dup3\n        /* \"#utility.yul\":5496:5503   */\n      dup5\n        /* \"#utility.yul\":5492:5515   */\n      sub\n        /* \"#utility.yul\":5488:5520   */\n      slt\n        /* \"#utility.yul\":5485:5604   */\n      iszero\n      tag_178\n      jumpi\n        /* \"#utility.yul\":5523:5602   */\n      tag_179\n      tag_72\n      jump\t// in\n    tag_179:\n        /* \"#utility.yul\":5485:5604   */\n    tag_178:\n        /* \"#utility.yul\":5671:5672   */\n      0x00\n        /* \"#utility.yul\":5660:5669   */\n      dup3\n        /* \"#utility.yul\":5656:5673   */\n      add\n        /* \"#utility.yul\":5643:5674   */\n      calldataload\n        /* \"#utility.yul\":5701:5719   */\n      0xffffffffffffffff\n        /* \"#utility.yul\":5693:5699   */\n      dup2\n        /* \"#utility.yul\":5690:5720   */\n      gt\n        /* \"#utility.yul\":5687:5804   */\n      iszero\n      tag_180\n      jumpi\n        /* \"#utility.yul\":5723:5802   */\n      tag_181\n      tag_73\n      jump\t// in\n    tag_181:\n        /* \"#utility.yul\":5687:5804   */\n    tag_180:\n        /* \"#utility.yul\":5828:5891   */\n      tag_182\n        /* \"#utility.yul\":5883:5890   */\n      dup5\n        /* \"#utility.yul\":5874:5880   */\n      dup3\n        /* \"#utility.yul\":5863:5872   */\n      dup6\n        /* \"#utility.yul\":5859:5881   */\n      add\n        /* \"#utility.yul\":5828:5891   */\n      tag_89\n      jump\t// in\n    tag_182:\n        /* \"#utility.yul\":5818:5891   */\n      swap2\n      pop\n        /* \"#utility.yul\":5614:5901   */\n      pop\n        /* \"#utility.yul\":5399:5908   */\n      swap3\n      swap2\n      pop\n      pop\n      jump\t// out\n        /* \"#utility.yul\":5914:6036   */\n    tag_90:\n        /* \"#utility.yul\":5987:6011   */\n      tag_184\n        /* \"#utility.yul\":6005:6010   */\n      dup2\n        /* \"#utility.yul\":5987:6011   */\n      tag_78\n      jump\t// in\n    tag_184:\n        /* \"#utility.yul\":5980:5985   */\n      dup2\n        /* \"#utility.yul\":5977:6012   */\n      eq\n        /* \"#utility.yul\":5967:6030   */\n      tag_185\n      jumpi\n        /* \"#utility.yul\":6026:6027   */\n      0x00\n        /* \"#utility.yul\":6023:6024   */\n      dup1\n        /* \"#utility.yul\":6016:6028   */\n      revert\n        /* \"#utility.yul\":5967:6030   */\n    tag_185:\n        /* \"#utility.yul\":5914:6036   */\n      pop\n      jump\t// out\n        /* \"#utility.yul\":6042:6181   */\n    tag_91:\n        /* \"#utility.yul\":6088:6093   */\n      0x00\n        /* \"#utility.yul\":6126:6132   */\n      dup2\n        /* \"#utility.yul\":6113:6133   */\n      calldataload\n        /* \"#utility.yul\":6104:6133   */\n      swap1\n      pop\n        /* \"#utility.yul\":6142:6175   */\n      tag_187\n        /* \"#utility.yul\":6169:6174   */\n      dup2\n        /* \"#utility.yul\":6142:6175   */\n      tag_90\n      jump\t// in\n    tag_187:\n        /* \"#utility.yul\":6042:6181   */\n      swap3\n      swap2\n      pop\n      pop\n      jump\t// out\n        /* \"#utility.yul\":6187:6516   */\n    tag_41:\n        /* \"#utility.yul\":6246:6252   */\n      0x00\n        /* \"#utility.yul\":6295:6297   */\n      0x20\n        /* \"#utility.yul\":6283:6292   */\n      dup3\n        /* \"#utility.yul\":6274:6281   */\n      dup5\n        /* \"#utility.yul\":6270:6293   */\n      sub\n        /* \"#utility.yul\":6266:6298   */\n      slt\n        /* \"#utility.yul\":6263:6382   */\n      iszero\n      tag_189\n      jumpi\n        /* \"#utility.yul\":6301:6380   */\n      tag_190\n      tag_72\n      jump\t// in\n    tag_190:\n        /* \"#utility.yul\":6263:6382   */\n    tag_189:\n        /* \"#utility.yul\":6421:6422   */\n      0x00\n        /* \"#utility.yul\":6446:6499   */\n      tag_191\n        /* \"#utility.yul\":6491:6498   */\n      dup5\n        /* \"#utility.yul\":6482:6488   */\n      dup3\n        /* \"#utility.yul\":6471:6480   */\n      dup6\n        /* \"#utility.yul\":6467:6489   */\n      add\n        /* \"#utility.yul\":6446:6499   */\n      tag_91\n      jump\t// in\n    tag_191:\n        /* \"#utility.yul\":6436:6499   */\n      swap2\n      pop\n        /* \"#utility.yul\":6392:6509   */\n      pop\n        /* \"#utility.yul\":6187:6516   */\n      swap3\n      swap2\n      pop\n      pop\n      jump\t// out\n        /* \"#utility.yul\":6522:6599   */\n    tag_92:\n        /* \"#utility.yul\":6559:6566   */\n      0x00\n        /* \"#utility.yul\":6588:6593   */\n      dup2\n        /* \"#utility.yul\":6577:6593   */\n      swap1\n      pop\n        /* \"#utility.yul\":6522:6599   */\n      swap2\n      swap1\n      pop\n      jump\t// out\n        /* \"#utility.yul\":6605:6723   */\n    tag_93:\n        /* \"#utility.yul\":6692:6716   */\n      tag_194\n        /* \"#utility.yul\":6710:6715   */\n      dup2\n        /* \"#utility.yul\":6692:6716   */\n      tag_92\n      jump\t// in\n    tag_194:\n        /* \"#utility.yul\":6687:6690   */\n      dup3\n        /* \"#utility.yul\":6680:6717   */\n      mstore\n        /* \"#utility.yul\":6605:6723   */\n      pop\n      pop\n      jump\t// out\n        /* \"#utility.yul\":6729:6951   */\n    tag_44:\n        /* \"#utility.yul\":6822:6826   */\n      0x00\n        /* \"#utility.yul\":6860:6862   */\n      0x20\n        /* \"#utility.yul\":6849:6858   */\n      dup3\n        /* \"#utility.yul\":6845:6863   */\n      add\n        /* \"#utility.yul\":6837:6863   */\n      swap1\n      pop\n        /* \"#utility.yul\":6873:6944   */\n      tag_196\n        /* \"#utility.yul\":6941:6942   */\n      0x00\n        /* \"#utility.yul\":6930:6939   */\n      dup4\n        /* \"#utility.yul\":6926:6943   */\n      add\n        /* \"#utility.yul\":6917:6923   */\n      dup5\n        /* \"#utility.yul\":6873:6944   */\n      tag_93\n      jump\t// in\n    tag_196:\n        /* \"#utility.yul\":6729:6951   */\n      swap3\n      swap2\n      pop\n      pop\n      jump\t// out\n        /* \"#utility.yul\":6957:7061   */\n    tag_94:\n        /* \"#utility.yul\":7002:7009   */\n      0x00\n        /* \"#utility.yul\":7031:7055   */\n      tag_198\n        /* \"#utility.yul\":7049:7054   */\n      dup3\n        /* \"#utility.yul\":7031:7055   */\n      tag_77\n      jump\t// in\n    tag_198:\n        /* \"#utility.yul\":7020:7055   */\n      swap1\n      pop\n        /* \"#utility.yul\":6957:7061   */\n      swap2\n      swap1\n      pop\n      jump\t// out\n        /* \"#utility.yul\":7067:7205   */\n    tag_95:\n        /* \"#utility.yul\":7148:7180   */\n      tag_200\n        /* \"#utility.yul\":7174:7179   */\n      dup2\n        /* \"#utility.yul\":7148:7180   */\n      tag_94\n      jump\t// in\n    tag_200:\n        /* \"#utility.yul\":7141:7146   */\n      dup2\n        /* \"#utility.yul\":7138:7181   */\n      eq\n        /* \"#utility.yul\":7128:7199   */\n      tag_201\n      jumpi\n        /* \"#utility.yul\":7195:7196   */\n      0x00\n        /* \"#utility.yul\":7192:7193   */\n      dup1\n        /* \"#utility.yul\":7185:7197   */\n      revert\n        /* \"#utility.yul\":7128:7199   */\n    tag_201:\n        /* \"#utility.yul\":7067:7205   */\n      pop\n      jump\t// out\n        /* \"#utility.yul\":7211:7366   */\n    tag_96:\n        /* \"#utility.yul\":7265:7270   */\n      0x00\n        /* \"#utility.yul\":7303:7309   */\n      dup2\n        /* \"#utility.yul\":7290:7310   */\n      calldataload\n        /* \"#utility.yul\":7281:7310   */\n      swap1\n      pop\n        /* \"#utility.yul\":7319:7360   */\n      tag_203\n        /* \"#utility.yul\":7354:7359   */\n      dup2\n        /* \"#utility.yul\":7319:7360   */\n      tag_95\n      jump\t// in\n    tag_203:\n        /* \"#utility.yul\":7211:7366   */\n      swap3\n      swap2\n      pop\n      pop\n      jump\t// out\n        /* \"#utility.yul\":7372:7717   */\n    tag_48:\n        /* \"#utility.yul\":7439:7445   */\n      0x00\n        /* \"#utility.yul\":7488:7490   */\n      0x20\n        /* \"#utility.yul\":7476:7485   */\n      dup3\n        /* \"#utility.yul\":7467:7474   */\n      dup5\n        /* \"#utility.yul\":7463:7486   */\n      sub\n        /* \"#utility.yul\":7459:7491   */\n      slt\n        /* \"#utility.yul\":7456:7575   */\n      iszero\n      tag_205\n      jumpi\n        /* \"#utility.yul\":7494:7573   */\n      tag_206\n      tag_72\n      jump\t// in\n    tag_206:\n        /* \"#utility.yul\":7456:7575   */\n    tag_205:\n        /* \"#utility.yul\":7614:7615   */\n      0x00\n        /* \"#utility.yul\":7639:7700   */\n      tag_207\n        /* \"#utility.yul\":7692:7699   */\n      dup5\n        /* \"#utility.yul\":7683:7689   */\n      dup3\n        /* \"#utility.yul\":7672:7681   */\n      dup6\n        /* \"#utility.yul\":7668:7690   */\n      add\n        /* \"#utility.yul\":7639:7700   */\n      tag_96\n      jump\t// in\n    tag_207:\n        /* \"#utility.yul\":7629:7700   */\n      swap2\n      pop\n        /* \"#utility.yul\":7585:7710   */\n      pop\n        /* \"#utility.yul\":7372:7717   */\n      swap3\n      swap2\n      pop\n      pop\n      jump\t// out\n        /* \"#utility.yul\":7723:7903   */\n    tag_97:\n        /* \"#utility.yul\":7771:7848   */\n      0x4e487b7100000000000000000000000000000000000000000000000000000000\n        /* \"#utility.yul\":7768:7769   */\n      0x00\n        /* \"#utility.yul\":7761:7849   */\n      mstore\n        /* \"#utility.yul\":7868:7872   */\n      0x22\n        /* \"#utility.yul\":7865:7866   */\n      0x04\n        /* \"#utility.yul\":7858:7873   */\n      mstore\n        /* \"#utility.yul\":7892:7896   */\n      0x24\n        /* \"#utility.yul\":7889:7890   */\n      0x00\n        /* \"#utility.yul\":7882:7897   */\n      revert\n        /* \"#utility.yul\":7909:8229   */\n    tag_52:\n        /* \"#utility.yul\":7953:7959   */\n      0x00\n        /* \"#utility.yul\":7990:7991   */\n      0x02\n        /* \"#utility.yul\":7984:7988   */\n      dup3\n        /* \"#utility.yul\":7980:7992   */\n      div\n        /* \"#utility.yul\":7970:7992   */\n      swap1\n      pop\n        /* \"#utility.yul\":8037:8038   */\n      0x01\n        /* \"#utility.yul\":8031:8035   */\n      dup3\n        /* \"#utility.yul\":8027:8039   */\n      and\n        /* \"#utility.yul\":8058:8076   */\n      dup1\n        /* \"#utility.yul\":8048:8129   */\n      tag_210\n      jumpi\n        /* \"#utility.yul\":8114:8118   */\n      0x7f\n        /* \"#utility.yul\":8106:8112   */\n      dup3\n        /* \"#utility.yul\":8102:8119   */\n      and\n        /* \"#utility.yul\":8092:8119   */\n      swap2\n      pop\n        /* \"#utility.yul\":8048:8129   */\n    tag_210:\n        /* \"#utility.yul\":8176:8178   */\n      0x20\n        /* \"#utility.yul\":8168:8174   */\n      dup3\n        /* \"#utility.yul\":8165:8179   */\n      lt\n        /* \"#utility.yul\":8145:8163   */\n      dup2\n        /* \"#utility.yul\":8142:8180   */\n      sub\n        /* \"#utility.yul\":8139:8223   */\n      tag_211\n      jumpi\n        /* \"#utility.yul\":8195:8213   */\n      tag_212\n      tag_97\n      jump\t// in\n    tag_212:\n        /* \"#utility.yul\":8139:8223   */\n    tag_211:\n        /* \"#utility.yul\":7960:8229   */\n      pop\n        /* \"#utility.yul\":7909:8229   */\n      swap2\n      swap1\n      pop\n      jump\t// out\n        /* \"#utility.yul\":8235:8376   */\n    tag_98:\n        /* \"#utility.yul\":8284:8288   */\n      0x00\n        /* \"#utility.yul\":8307:8310   */\n      dup2\n        /* \"#utility.yul\":8299:8310   */\n      swap1\n      pop\n        /* \"#utility.yul\":8330:8333   */\n      dup2\n        /* \"#utility.yul\":8327:8328   */\n      0x00\n        /* \"#utility.yul\":8320:8334   */\n      mstore\n        /* \"#utility.yul\":8364:8368   */\n      0x20\n        /* \"#utility.yul\":8361:8362   */\n      0x00\n        /* \"#utility.yul\":8351:8369   */\n      keccak256\n        /* \"#utility.yul\":8343:8369   */\n      swap1\n      pop\n        /* \"#utility.yul\":8235:8376   */\n      swap2\n      swap1\n      pop\n      jump\t// out\n        /* \"#utility.yul\":8382:8475   */\n    tag_99:\n        /* \"#utility.yul\":8419:8425   */\n      0x00\n        /* \"#utility.yul\":8466:8468   */\n      0x20\n        /* \"#utility.yul\":8461:8463   */\n      0x1f\n        /* \"#utility.yul\":8454:8459   */\n      dup4\n        /* \"#utility.yul\":8450:8464   */\n      add\n        /* \"#utility.yul\":8446:8469   */\n      div\n        /* \"#utility.yul\":8436:8469   */\n      swap1\n      pop\n        /* \"#utility.yul\":8382:8475   */\n      swap2\n      swap1\n      pop\n      jump\t// out\n        /* \"#utility.yul\":8481:8588   */\n    tag_100:\n        /* \"#utility.yul\":8525:8533   */\n      0x00\n        /* \"#utility.yul\":8575:8580   */\n      dup3\n        /* \"#utility.yul\":8569:8573   */\n      dup3\n        /* \"#utility.yul\":8565:8581   */\n      shl\n        /* \"#utility.yul\":8544:8581   */\n      swap1\n      pop\n        /* \"#utility.yul\":8481:8588   */\n      swap3\n      swap2\n      pop\n      pop\n      jump\t// out\n        /* \"#utility.yul\":8594:8987   */\n    tag_101:\n        /* \"#utility.yul\":8663:8669   */\n      0x00\n        /* \"#utility.yul\":8713:8714   */\n      0x08\n        /* \"#utility.yul\":8701:8711   */\n      dup4\n        /* \"#utility.yul\":8697:8715   */\n      mul\n        /* \"#utility.yul\":8736:8833   */\n      tag_217\n        /* \"#utility.yul\":8766:8832   */\n      0xffffffffffffffffffffffffffffffffffffffffffffffffffffffffffffffff\n        /* \"#utility.yul\":8755:8764   */\n      dup3\n        /* \"#utility.yul\":8736:8833   */\n      tag_100\n      jump\t// in\n    tag_217:\n        /* \"#utility.yul\":8854:8893   */\n      tag_218\n        /* \"#utility.yul\":8884:8892   */\n      dup7\n        /* \"#utility.yul\":8873:8882   */\n      dup4\n        /* \"#utility.yul\":8854:8893   */\n      tag_100\n      jump\t// in\n    tag_218:\n        /* \"#utility.yul\":8842:8893   */\n      swap6\n      pop\n        /* \"#utility.yul\":8926:8930   */\n      dup1\n        /* \"#utility.yul\":8922:8931   */\n      not\n        /* \"#utility.yul\":8915:8920   */\n      dup5\n        /* \"#utility.yul\":8911:8932   */\n      and\n        /* \"#utility.yul\":8902:8932   */\n      swap4\n      pop\n        /* \"#utility.yul\":8975:8979   */\n      dup1\n        /* \"#utility.yul\":8965:8973   */\n      dup7\n        /* \"#utility.yul\":8961:8980   */\n      and\n        /* \"#utility.yul\":8954:8959   */\n      dup5\n        /* \"#utility.yul\":8951:8981   */\n      or\n        /* \"#utility.yul\":8941:8981   */\n      swap3\n      pop\n        /* \"#utility.yul\":8670:8987   */\n      pop\n      pop\n        /* \"#utility.yul\":8594:8987   */\n      swap4\n      swap3\n      pop\n      pop\n      pop\n      jump\t// out\n        /* \"#utility.yul\":8993:9053   */\n    tag_102:\n        /* \"#utility.yul\":9021:9024   */\n      0x00\n        /* \"#utility.yul\":9042:9047   */\n      dup2\n        /* \"#utility.yul\":9035:9047   */\n      swap1\n      pop\n        /* \"#utility.yul\":8993:9053   */\n      swap2\n      swap1\n      pop\n      jump\t// out\n        /* \"#utility.yul\":9059:9201   */\n    tag_103:\n        /* \"#utility.yul\":9109:9118   */\n      0x00\n        /* \"#utility.yul\":9142:9195   */\n      tag_221\n        /* \"#utility.yul\":9160:9194   */\n      tag_222\n        /* \"#utility.yul\":9169:9193   */\n      tag_223\n        /* \"#utility.yul\":9187:9192   */\n      dup5\n        /* \"#utility.yul\":9169:9193   */\n      tag_92\n      jump\t// in\n    tag_223:\n        /* \"#utility.yul\":9160:9194   */\n      tag_102\n      jump\t// in\n    tag_222:\n        /* \"#utility.yul\":9142:9195   */\n      tag_92\n      jump\t// in\n    tag_221:\n        /* \"#utility.yul\":9129:9195   */\n      swap1\n      pop\n        /* \"#utility.yul\":9059:9201   */\n      swap2\n      swap1\n      pop\n      jump\t// out\n        /* \"#utility.yul\":9207:9282   */\n    tag_104:\n        /* \"#utility.yul\":9250:9253   */\n      0x00\n        /* \"#utility.yul\":9271:9276   */\n      dup2\n        /* \"#utility.yul\":9264:9276   */\n      swap1\n      pop\n        /* \"#utility.yul\":9207:9282   */\n      swap2\n      swap1\n      pop\n      jump\t// out\n        /* \"#utility.yul\":9288:9557   */\n    tag_105:\n        /* \"#utility.yul\":9398:9437   */\n      tag_226\n        /* \"#utility.yul\":9429:9436   */\n      dup4\n        /* \"#utility.yul\":9398:9437   */\n      tag_103\n      jump\t// in\n    tag_226:\n        /* \"#utility.yul\":9459:9550   */\n      tag_227\n        /* \"#utility.yul\":9508:9549   */\n      tag_228\n        /* \"#utility.yul\":9532:9548   */\n      dup3\n        /* \"#utility.yul\":9508:9549   */\n      tag_104\n      jump\t// in\n    tag_228:\n        /* \"#utility.yul\":9500:9506   */\n      dup5\n        /* \"#utility.yul\":9493:9497   */\n      dup5\n        /* \"#utility.yul\":9487:9498   */\n      sload\n        /* \"#utility.yul\":9459:9550   */\n      tag_101\n      jump\t// in\n    tag_227:\n        /* \"#utility.yul\":9453:9457   */\n      dup3\n        /* \"#utility.yul\":9446:9551   */\n      sstore\n        /* \"#utility.yul\":9364:9557   */\n      pop\n        /* \"#utility.yul\":9288:9557   */\n      pop\n      pop\n      pop\n      jump\t// out\n        /* \"#utility.yul\":9563:9636   */\n    tag_106:\n        /* \"#utility.yul\":9608:9611   */\n      0x00\n        /* \"#utility.yul\":9563:9636   */\n      swap1\n      jump\t// out\n        /* \"#utility.yul\":9642:9831   */\n    tag_107:\n        /* \"#utility.yul\":9719:9751   */\n      tag_231\n      tag_106\n      jump\t// in\n    tag_231:\n        /* \"#utility.yul\":9760:9825   */\n      tag_232\n        /* \"#utility.yul\":9818:9824   */\n      dup2\n        /* \"#utility.yul\":9810:9816   */\n      dup5\n        /* \"#utility.yul\":9804:9808   */\n      dup5\n        /* \"#utility.yul\":9760:9825   */\n      tag_105\n      jump\t// in\n    tag_232:\n        /* \"#utility.yul\":9695:9831   */\n      pop\n        /* \"#utility.yul\":9642:9831   */\n      pop\n      pop\n      jump\t// out\n        /* \"#utility.yul\":9837:10023   */\n    tag_108:\n        /* \"#utility.yul\":9897:10017   */\n    tag_234:\n        /* \"#utility.yul\":9914:9917   */\n      dup2\n        /* \"#utility.yul\":9907:9912   */\n      dup2\n        /* \"#utility.yul\":9904:9918   */\n      lt\n        /* \"#utility.yul\":9897:10017   */\n      iszero\n      tag_236\n      jumpi\n        /* \"#utility.yul\":9968:10007   */\n      tag_237\n        /* \"#utility.yul\":10005:10006   */\n      0x00\n        /* \"#utility.yul\":9998:10003   */\n      dup3\n        /* \"#utility.yul\":9968:10007   */\n      tag_107\n      jump\t// in\n    tag_237:\n        /* \"#utility.yul\":9941:9942   */\n      0x01\n        /* \"#utility.yul\":9934:9939   */\n      dup2\n        /* \"#utility.yul\":9930:9943   */\n      add\n        /* \"#utility.yul\":9921:9943   */\n      swap1\n      pop\n        /* \"#utility.yul\":9897:10017   */\n      jump(tag_234)\n    tag_236:\n        /* \"#utility.yul\":9837:10023   */\n      pop\n      pop\n      jump\t// out\n        /* \"#utility.yul\":10029:10572   */\n    tag_109:\n        /* \"#utility.yul\":10130:10132   */\n      0x1f\n        /* \"#utility.yul\":10125:10128   */\n      dup3\n        /* \"#utility.yul\":10122:10133   */\n      gt\n        /* \"#utility.yul\":10119:10565   */\n      iszero\n      tag_239\n      jumpi\n        /* \"#utility.yul\":10164:10202   */\n      tag_240\n        /* \"#utility.yul\":10196:10201   */\n      dup2\n        /* \"#utility.yul\":10164:10202   */\n      tag_98\n      jump\t// in\n    tag_240:\n        /* \"#utility.yul\":10248:10277   */\n      tag_241\n        /* \"#utility.yul\":10266:10276   */\n      dup5\n        /* \"#utility.yul\":10248:10277   */\n      tag_99\n      jump\t// in\n    tag_241:\n        /* \"#utility.yul\":10238:10246   */\n      dup2\n        /* \"#utility.yul\":10234:10278   */\n      add\n        /* \"#utility.yul\":10431:10433   */\n      0x20\n        /* \"#utility.yul\":10419:10429   */\n      dup6\n        /* \"#utility.yul\":10416:10434   */\n      lt\n        /* \"#utility.yul\":10413:10462   */\n      iszero\n      tag_242\n      jumpi\n        /* \"#utility.yul\":10452:10460   */\n      dup2\n        /* \"#utility.yul\":10437:10460   */\n      swap1\n      pop\n        /* \"#utility.yul\":10413:10462   */\n    tag_242:\n        /* \"#utility.yul\":10475:10555   */\n      tag_243\n        /* \"#utility.yul\":10531:10553   */\n      tag_244\n        /* \"#utility.yul\":10549:10552   */\n      dup6\n        /* \"#utility.yul\":10531:10553   */\n      tag_99\n      jump\t// in\n    tag_244:\n        /* \"#utility.yul\":10521:10529   */\n      dup4\n        /* \"#utility.yul\":10517:10554   */\n      add\n        /* \"#utility.yul\":10504:10515   */\n      dup3\n        /* \"#utility.yul\":10475:10555   */\n      tag_108\n      jump\t// in\n    tag_243:\n        /* \"#utility.yul\":10134:10565   */\n      pop\n      pop\n        /* \"#utility.yul\":10119:10565   */\n    tag_239:\n        /* \"#utility.yul\":10029:10572   */\n      pop\n      pop\n      pop\n      jump\t// out\n        /* \"#utility.yul\":10578:10695   */\n    tag_110:\n        /* \"#utility.yul\":10632:10640   */\n      0x00\n        /* \"#utility.yul\":10682:10687   */\n      dup3\n        /* \"#utility.yul\":10676:10680   */\n      dup3\n        /* \"#utility.yul\":10672:10688   */\n      shr\n        /* \"#utility.yul\":10651:10688   */\n      swap1\n      pop\n        /* \"#utility.yul\":10578:10695   */\n      swap3\n      swap2\n      pop\n      pop\n      jump\t// out\n        /* \"#utility.yul\":10701:10870   */\n    tag_111:\n        /* \"#utility.yul\":10745:10751   */\n      0x00\n        /* \"#utility.yul\":10778:10829   */\n      tag_247\n        /* \"#utility.yul\":10826:10827   */\n      0x00\n        /* \"#utility.yul\":10822:10828   */\n      not\n        /* \"#utility.yul\":10814:10819   */\n      dup5\n        /* \"#utility.yul\":10811:10812   */\n      0x08\n        /* \"#utility.yul\":10807:10820   */\n      mul\n        /* \"#utility.yul\":10778:10829   */\n      tag_110\n      jump\t// in\n    tag_247:\n        /* \"#utility.yul\":10774:10830   */\n      not\n        /* \"#utility.yul\":10859:10863   */\n      dup1\n        /* \"#utility.yul\":10853:10857   */\n      dup4\n        /* \"#utility.yul\":10849:10864   */\n      and\n        /* \"#utility.yul\":10839:10864   */\n      swap2\n      pop\n        /* \"#utility.yul\":10752:10870   */\n      pop\n        /* \"#utility.yul\":10701:10870   */\n      swap3\n      swap2\n      pop\n      pop\n      jump\t// out\n        /* \"#utility.yul\":10875:11170   */\n    tag_112:\n        /* \"#utility.yul\":10951:10955   */\n      0x00\n        /* \"#utility.yul\":11097:11126   */\n      tag_249\n        /* \"#utility.yul\":11122:11125   */\n      dup4\n        /* \"#utility.yul\":11116:11120   */\n      dup4\n        /* \"#utility.yul\":11097:11126   */\n      tag_111\n      jump\t// in\n    tag_249:\n        /* \"#utility.yul\":11089:11126   */\n      swap2\n      pop\n        /* \"#utility.yul\":11159:11162   */\n      dup3\n        /* \"#utility.yul\":11156:11157   */\n      0x02\n        /* \"#utility.yul\":11152:11163   */\n      mul\n        /* \"#utility.yul\":11146:11150   */\n      dup3\n        /* \"#utility.yul\":11143:11164   */\n      or\n        /* \"#utility.yul\":11135:11164   */\n      swap1\n      pop\n        /* \"#utility.yul\":10875:11170   */\n      swap3\n      swap2\n      pop\n      pop\n      jump\t// out\n        /* \"#utility.yul\":11175:12570   */\n    tag_62:\n        /* \"#utility.yul\":11292:11329   */\n      tag_251\n        /* \"#utility.yul\":11325:11328   */\n      dup3\n        /* \"#utility.yul\":11292:11329   */\n      tag_66\n      jump\t// in\n    tag_251:\n        /* \"#utility.yul\":11394:11412   */\n      0xffffffffffffffff\n        /* \"#utility.yul\":11386:11392   */\n      dup2\n        /* \"#utility.yul\":11383:11413   */\n      gt\n        /* \"#utility.yul\":11380:11436   */\n      iszero\n      tag_252\n      jumpi\n        /* \"#utility.yul\":11416:11434   */\n      tag_253\n      tag_83\n      jump\t// in\n    tag_253:\n        /* \"#utility.yul\":11380:11436   */\n    tag_252:\n        /* \"#utility.yul\":11460:11498   */\n      tag_254\n        /* \"#utility.yul\":11492:11496   */\n      dup3\n        /* \"#utility.yul\":11486:11497   */\n      sload\n        /* \"#utility.yul\":11460:11498   */\n      tag_52\n      jump\t// in\n    tag_254:\n        /* \"#utility.yul\":11545:11612   */\n      tag_255\n        /* \"#utility.yul\":11605:11611   */\n      dup3\n        /* \"#utility.yul\":11597:11603   */\n      dup3\n        /* \"#utility.yul\":11591:11595   */\n      dup6\n        /* \"#utility.yul\":11545:11612   */\n      tag_109\n      jump\t// in\n    tag_255:\n        /* \"#utility.yul\":11639:11640   */\n      0x00\n        /* \"#utility.yul\":11663:11667   */\n      0x20\n        /* \"#utility.yul\":11650:11667   */\n      swap1\n      pop\n        /* \"#utility.yul\":11695:11697   */\n      0x1f\n        /* \"#utility.yul\":11687:11693   */\n      dup4\n        /* \"#utility.yul\":11684:11698   */\n      gt\n        /* \"#utility.yul\":11712:11713   */\n      0x01\n        /* \"#utility.yul\":11707:12325   */\n      dup2\n      eq\n      tag_257\n      jumpi\n        /* \"#utility.yul\":12369:12370   */\n      0x00\n        /* \"#utility.yul\":12386:12392   */\n      dup5\n        /* \"#utility.yul\":12383:12460   */\n      iszero\n      tag_258\n      jumpi\n        /* \"#utility.yul\":12435:12444   */\n      dup3\n        /* \"#utility.yul\":12430:12433   */\n      dup8\n        /* \"#utility.yul\":12426:12445   */\n      add\n        /* \"#utility.yul\":12420:12446   */\n      mload\n        /* \"#utility.yul\":12411:12446   */\n      swap1\n      pop\n        /* \"#utility.yul\":12383:12460   */\n    tag_258:\n        /* \"#utility.yul\":12486:12553   */\n      tag_259\n        /* \"#utility.yul\":12546:12552   */\n      dup6\n        /* \"#utility.yul\":12539:12544   */\n      dup3\n        /* \"#utility.yul\":12486:12553   */\n      tag_112\n      jump\t// in\n    tag_259:\n        /* \"#utility.yul\":12480:12484   */\n      dup7\n        /* \"#utility.yul\":12473:12554   */\n      sstore\n        /* \"#utility.yul\":12342:12564   */\n      pop\n        /* \"#utility.yul\":11677:12564   */\n      jump(tag_256)\n        /* \"#utility.yul\":11707:12325   */\n    tag_257:\n        /* \"#utility.yul\":11759:11763   */\n      0x1f\n        /* \"#utility.yul\":11755:11764   */\n      not\n        /* \"#utility.yul\":11747:11753   */\n      dup5\n        /* \"#utility.yul\":11743:11765   */\n      and\n        /* \"#utility.yul\":11793:11830   */\n      tag_260\n        /* \"#utility.yul\":11825:11829   */\n      dup7\n        /* \"#utility.yul\":11793:11830   */\n      tag_98\n      jump\t// in\n    tag_260:\n        /* \"#utility.yul\":11852:11853   */\n      0x00\n        /* \"#utility.yul\":11866:12074   */\n    tag_261:\n        /* \"#utility.yul\":11880:11887   */\n      dup3\n        /* \"#utility.yul\":11877:11878   */\n      dup2\n        /* \"#utility.yul\":11874:11888   */\n      lt\n        /* \"#utility.yul\":11866:12074   */\n      iszero\n      tag_263\n      jumpi\n        /* \"#utility.yul\":11959:11968   */\n      dup5\n        /* \"#utility.yul\":11954:11957   */\n      dup10\n        /* \"#utility.yul\":11950:11969   */\n      add\n        /* \"#utility.yul\":11944:11970   */\n      mload\n        /* \"#utility.yul\":11936:11942   */\n      dup3\n        /* \"#utility.yul\":11929:11971   */\n      sstore\n        /* \"#utility.yul\":12010:12011   */\n      0x01\n        /* \"#utility.yul\":12002:12008   */\n      dup3\n        /* \"#utility.yul\":11998:12012   */\n      add\n        /* \"#utility.yul\":11988:12012   */\n      swap2\n      pop\n        /* \"#utility.yul\":12057:12059   */\n      0x20\n        /* \"#utility.yul\":12046:12055   */\n      dup6\n        /* \"#utility.yul\":12042:12060   */\n      add\n        /* \"#utility.yul\":12029:12060   */\n      swap5\n      pop\n        /* \"#utility.yul\":11903:11907   */\n      0x20\n        /* \"#utility.yul\":11900:11901   */\n      dup2\n        /* \"#utility.yul\":11896:11908   */\n      add\n        /* \"#utility.yul\":11891:11908   */\n      swap1\n      pop\n        /* \"#utility.yul\":11866:12074   */\n      jump(tag_261)\n    tag_263:\n        /* \"#utility.yul\":12102:12108   */\n      dup7\n        /* \"#utility.yul\":12093:12100   */\n      dup4\n        /* \"#utility.yul\":12090:12109   */\n      lt\n        /* \"#utility.yul\":12087:12266   */\n      iszero\n      tag_264\n      jumpi\n        /* \"#utility.yul\":12160:12169   */\n      dup5\n        /* \"#utility.yul\":12155:12158   */\n      dup10\n        /* \"#utility.yul\":12151:12170   */\n      add\n        /* \"#utility.yul\":12145:12171   */\n      mload\n        /* \"#utility.yul\":12203:12251   */\n      tag_265\n        /* \"#utility.yul\":12245:12249   */\n      0x1f\n        /* \"#utility.yul\":12237:12243   */\n      dup10\n        /* \"#utility.yul\":12233:12250   */\n      and\n        /* \"#utility.yul\":12222:12231   */\n      dup3\n        /* \"#utility.yul\":12203:12251   */\n      tag_111\n      jump\t// in\n    tag_265:\n        /* \"#utility.yul\":12195:12201   */\n      dup4\n        /* \"#utility.yul\":12188:12252   */\n      sstore\n        /* \"#utility.yul\":12110:12266   */\n      pop\n        /* \"#utility.yul\":12087:12266   */\n    tag_264:\n        /* \"#utility.yul\":12312:12313   */\n      0x01\n        /* \"#utility.yul\":12308:12309   */\n      0x02\n        /* \"#utility.yul\":12300:12306   */\n      dup9\n        /* \"#utility.yul\":12296:12310   */\n      mul\n        /* \"#utility.yul\":12292:12314   */\n      add\n        /* \"#utility.yul\":12286:12290   */\n      dup9\n        /* \"#utility.yul\":12279:12315   */\n      sstore\n        /* \"#utility.yul\":11714:12325   */\n      pop\n      pop\n      pop\n        /* \"#utility.yul\":11677:12564   */\n    tag_256:\n      pop\n        /* \"#utility.yul\":11267:12570   */\n      pop\n      pop\n      pop\n        /* \"#utility.yul\":11175:12570   */\n      pop\n      pop\n      jump\t// out\n\n    auxdata: 0xa26469706673582212209c89e1d5fab4f1d888b0210e06fe5b3d4a1412ba1f8448e3da85ed1cb94549e464736f6c63430008120033\n}\n",
				"bytecode": {
					"linkReferences": {},
					"object": "608060405234801561001057600080fd5b50336001806101000a81548173ffffffffffffffffffffffffffffffffffffffff021916908373ffffffffffffffffffffffffffffffffffffffff160217905550610aa5806100606000396000f3fe60806040526004361061007b5760003560e01c8063967e6e651161004e578063967e6e6514610109578063c47f002714610134578063e2982c211461015d578063fa09e6301461019a5761007b565b806317d7de7c146100805780631b9265b8146100ab5780635b0c8d70146100b55780638da5cb5b146100de575b600080fd5b34801561008c57600080fd5b506100956101c3565b6040516100a291906103f9565b60405180910390f35b6100b3610255565b005b3480156100c157600080fd5b506100dc60048036038101906100d79190610468565b61029b565b005b3480156100ea57600080fd5b506100f36102b9565b60405161010091906104d6565b60405180910390f35b34801561011557600080fd5b5061011e6102dd565b60405161012b9190610500565b60405180910390f35b34801561014057600080fd5b5061015b60048036038101906101569190610650565b6102f4565b005b34801561016957600080fd5b50610184600480360381019061017f91906106c5565b610307565b604051610191919061070b565b60405180910390f35b3480156101a657600080fd5b506101c160048036038101906101bc9190610764565b61031f565b005b6060600080546101d2906107c0565b80601f01602080910402602001604051908101604052809291908181526020018280546101fe906107c0565b801561024b5780601f106102205761010080835404028352916020019161024b565b820191906000526020600020905b81548152906001019060200180831161022e57829003601f168201915b5050505050905090565b34600260003373ffffffffffffffffffffffffffffffffffffffff1673ffffffffffffffffffffffffffffffffffffffff16815260200190815260200160002081905550565b80600160006101000a81548160ff021916908360ff16021790555050565b60018054906101000a900473ffffffffffffffffffffffffffffffffffffffff1681565b6000600160009054906101000a900460ff16905090565b8060009081610303919061099d565b5050565b60026020528060005260406000206000915090505481565b8073ffffffffffffffffffffffffffffffffffffffff166108fc479081150290604051600060405180830381858888f19350505050158015610365573d6000803e3d6000fd5b5050565b600081519050919050565b600082825260208201905092915050565b60005b838110156103a3578082015181840152602081019050610388565b60008484015250505050565b6000601f19601f8301169050919050565b60006103cb82610369565b6103d58185610374565b93506103e5818560208601610385565b6103ee816103af565b840191505092915050565b6000602082019050818103600083015261041381846103c0565b905092915050565b6000604051905090565b600080fd5b600080fd5b600060ff82169050919050565b6104458161042f565b811461045057600080fd5b50565b6000813590506104628161043c565b92915050565b60006020828403121561047e5761047d610425565b5b600061048c84828501610453565b91505092915050565b600073ffffffffffffffffffffffffffffffffffffffff82169050919050565b60006104c082610495565b9050919050565b6104d0816104b5565b82525050565b60006020820190506104eb60008301846104c7565b92915050565b6104fa8161042f565b82525050565b600060208201905061051560008301846104f1565b92915050565b600080fd5b600080fd5b7f4e487b7100000000000000000000000000000000000000000000000000000000600052604160045260246000fd5b61055d826103af565b810181811067ffffffffffffffff8211171561057c5761057b610525565b5b80604052505050565b600061058f61041b565b905061059b8282610554565b919050565b600067ffffffffffffffff8211156105bb576105ba610525565b5b6105c4826103af565b9050602081019050919050565b82818337600083830152505050565b60006105f36105ee846105a0565b610585565b90508281526020810184848401111561060f5761060e610520565b5b61061a8482856105d1565b509392505050565b600082601f8301126106375761063661051b565b5b81356106478482602086016105e0565b91505092915050565b60006020828403121561066657610665610425565b5b600082013567ffffffffffffffff8111156106845761068361042a565b5b61069084828501610622565b91505092915050565b6106a2816104b5565b81146106ad57600080fd5b50565b6000813590506106bf81610699565b92915050565b6000602082840312156106db576106da610425565b5b60006106e9848285016106b0565b91505092915050565b6000819050919050565b610705816106f2565b82525050565b600060208201905061072060008301846106fc565b92915050565b600061073182610495565b9050919050565b61074181610726565b811461074c57600080fd5b50565b60008135905061075e81610738565b92915050565b60006020828403121561077a57610779610425565b5b60006107888482850161074f565b91505092915050565b7f4e487b7100000000000000000000000000000000000000000000000000000000600052602260045260246000fd5b600060028204905060018216806107d857607f821691505b6020821081036107eb576107ea610791565b5b50919050565b60008190508160005260206000209050919050565b60006020601f8301049050919050565b600082821b905092915050565b6000600883026108537fffffffffffffffffffffffffffffffffffffffffffffffffffffffffffffffff82610816565b61085d8683610816565b95508019841693508086168417925050509392505050565b6000819050919050565b600061089a610895610890846106f2565b610875565b6106f2565b9050919050565b6000819050919050565b6108b48361087f565b6108c86108c0826108a1565b848454610823565b825550505050565b600090565b6108dd6108d0565b6108e88184846108ab565b505050565b5b8181101561090c576109016000826108d5565b6001810190506108ee565b5050565b601f82111561095157610922816107f1565b61092b84610806565b8101602085101561093a578190505b61094e61094685610806565b8301826108ed565b50505b505050565b600082821c905092915050565b600061097460001984600802610956565b1980831691505092915050565b600061098d8383610963565b9150826002028217905092915050565b6109a682610369565b67ffffffffffffffff8111156109bf576109be610525565b5b6109c982546107c0565b6109d4828285610910565b600060209050601f831160018114610a0757600084156109f5578287015190505b6109ff8582610981565b865550610a67565b601f198416610a15866107f1565b60005b82811015610a3d57848901518255600182019150602085019450602081019050610a18565b86831015610a5a5784890151610a56601f891682610963565b8355505b6001600288020188555050505b50505050505056fea26469706673582212209c89e1d5fab4f1d888b0210e06fe5b3d4a1412ba1f8448e3da85ed1cb94549e464736f6c63430008120033",
					"opcodes": "PUSH1 0x80 PUSH1 0x40 MSTORE CALLVALUE DUP1 ISZERO PUSH2 0x10 JUMPI PUSH1 0x0 DUP1 REVERT JUMPDEST POP CALLER PUSH1 0x1 DUP1 PUSH2 0x100 EXP DUP2 SLOAD DUP2 PUSH20 0xFFFFFFFFFFFFFFFFFFFFFFFFFFFFFFFFFFFFFFFF MUL NOT AND SWAP1 DUP4 PUSH20 0xFFFFFFFFFFFFFFFFFFFFFFFFFFFFFFFFFFFFFFFF AND MUL OR SWAP1 SSTORE POP PUSH2 0xAA5 DUP1 PUSH2 0x60 PUSH1 0x0 CODECOPY PUSH1 0x0 RETURN INVALID PUSH1 0x80 PUSH1 0x40 MSTORE PUSH1 0x4 CALLDATASIZE LT PUSH2 0x7B JUMPI PUSH1 0x0 CALLDATALOAD PUSH1 0xE0 SHR DUP1 PUSH4 0x967E6E65 GT PUSH2 0x4E JUMPI DUP1 PUSH4 0x967E6E65 EQ PUSH2 0x109 JUMPI DUP1 PUSH4 0xC47F0027 EQ PUSH2 0x134 JUMPI DUP1 PUSH4 0xE2982C21 EQ PUSH2 0x15D JUMPI DUP1 PUSH4 0xFA09E630 EQ PUSH2 0x19A JUMPI PUSH2 0x7B JUMP JUMPDEST DUP1 PUSH4 0x17D7DE7C EQ PUSH2 0x80 JUMPI DUP1 PUSH4 0x1B9265B8 EQ PUSH2 0xAB JUMPI DUP1 PUSH4 0x5B0C8D70 EQ PUSH2 0xB5 JUMPI DUP1 PUSH4 0x8DA5CB5B EQ PUSH2 0xDE JUMPI JUMPDEST PUSH1 0x0 DUP1 REVERT JUMPDEST CALLVALUE DUP1 ISZERO PUSH2 0x8C JUMPI PUSH1 0x0 DUP1 REVERT JUMPDEST POP PUSH2 0x95 PUSH2 0x1C3 JUMP JUMPDEST PUSH1 0x40 MLOAD PUSH2 0xA2 SWAP2 SWAP1 PUSH2 0x3F9 JUMP JUMPDEST PUSH1 0x40 MLOAD DUP1 SWAP2 SUB SWAP1 RETURN JUMPDEST PUSH2 0xB3 PUSH2 0x255 JUMP JUMPDEST STOP JUMPDEST CALLVALUE DUP1 ISZERO PUSH2 0xC1 JUMPI PUSH1 0x0 DUP1 REVERT JUMPDEST POP PUSH2 0xDC PUSH1 0x4 DUP1 CALLDATASIZE SUB DUP2 ADD SWAP1 PUSH2 0xD7 SWAP2 SWAP1 PUSH2 0x468 JUMP JUMPDEST PUSH2 0x29B JUMP JUMPDEST STOP JUMPDEST CALLVALUE DUP1 ISZERO PUSH2 0xEA JUMPI PUSH1 0x0 DUP1 REVERT JUMPDEST POP PUSH2 0xF3 PUSH2 0x2B9 JUMP JUMPDEST PUSH1 0x40 MLOAD PUSH2 0x100 SWAP2 SWAP1 PUSH2 0x4D6 JUMP JUMPDEST PUSH1 0x40 MLOAD DUP1 SWAP2 SUB SWAP1 RETURN JUMPDEST CALLVALUE DUP1 ISZERO PUSH2 0x115 JUMPI PUSH1 0x0 DUP1 REVERT JUMPDEST POP PUSH2 0x11E PUSH2 0x2DD JUMP JUMPDEST PUSH1 0x40 MLOAD PUSH2 0x12B SWAP2 SWAP1 PUSH2 0x500 JUMP JUMPDEST PUSH1 0x40 MLOAD DUP1 SWAP2 SUB SWAP1 RETURN JUMPDEST CALLVALUE DUP1 ISZERO PUSH2 0x140 JUMPI PUSH1 0x0 DUP1 REVERT JUMPDEST POP PUSH2 0x15B PUSH1 0x4 DUP1 CALLDATASIZE SUB DUP2 ADD SWAP1 PUSH2 0x156 SWAP2 SWAP1 PUSH2 0x650 JUMP JUMPDEST PUSH2 0x2F4 JUMP JUMPDEST STOP JUMPDEST CALLVALUE DUP1 ISZERO PUSH2 0x169 JUMPI PUSH1 0x0 DUP1 REVERT JUMPDEST POP PUSH2 0x184 PUSH1 0x4 DUP1 CALLDATASIZE SUB DUP2 ADD SWAP1 PUSH2 0x17F SWAP2 SWAP1 PUSH2 0x6C5 JUMP JUMPDEST PUSH2 0x307 JUMP JUMPDEST PUSH1 0x40 MLOAD PUSH2 0x191 SWAP2 SWAP1 PUSH2 0x70B JUMP JUMPDEST PUSH1 0x40 MLOAD DUP1 SWAP2 SUB SWAP1 RETURN JUMPDEST CALLVALUE DUP1 ISZERO PUSH2 0x1A6 JUMPI PUSH1 0x0 DUP1 REVERT JUMPDEST POP PUSH2 0x1C1 PUSH1 0x4 DUP1 CALLDATASIZE SUB DUP2 ADD SWAP1 PUSH2 0x1BC SWAP2 SWAP1 PUSH2 0x764 JUMP JUMPDEST PUSH2 0x31F JUMP JUMPDEST STOP JUMPDEST PUSH1 0x60 PUSH1 0x0 DUP1 SLOAD PUSH2 0x1D2 SWAP1 PUSH2 0x7C0 JUMP JUMPDEST DUP1 PUSH1 0x1F ADD PUSH1 0x20 DUP1 SWAP2 DIV MUL PUSH1 0x20 ADD PUSH1 0x40 MLOAD SWAP1 DUP2 ADD PUSH1 0x40 MSTORE DUP1 SWAP3 SWAP2 SWAP1 DUP2 DUP2 MSTORE PUSH1 0x20 ADD DUP3 DUP1 SLOAD PUSH2 0x1FE SWAP1 PUSH2 0x7C0 JUMP JUMPDEST DUP1 ISZERO PUSH2 0x24B JUMPI DUP1 PUSH1 0x1F LT PUSH2 0x220 JUMPI PUSH2 0x100 DUP1 DUP4 SLOAD DIV MUL DUP4 MSTORE SWAP2 PUSH1 0x20 ADD SWAP2 PUSH2 0x24B JUMP JUMPDEST DUP3 ADD SWAP2 SWAP1 PUSH1 0x0 MSTORE PUSH1 0x20 PUSH1 0x0 KECCAK256 SWAP1 JUMPDEST DUP2 SLOAD DUP2 MSTORE SWAP1 PUSH1 0x1 ADD SWAP1 PUSH1 0x20 ADD DUP1 DUP4 GT PUSH2 0x22E JUMPI DUP3 SWAP1 SUB PUSH1 0x1F AND DUP3 ADD SWAP2 JUMPDEST POP POP POP POP POP SWAP1 POP SWAP1 JUMP JUMPDEST CALLVALUE PUSH1 0x2 PUSH1 0x0 CALLER PUSH20 0xFFFFFFFFFFFFFFFFFFFFFFFFFFFFFFFFFFFFFFFF AND PUSH20 0xFFFFFFFFFFFFFFFFFFFFFFFFFFFFFFFFFFFFFFFF AND DUP2 MSTORE PUSH1 0x20 ADD SWAP1 DUP2 MSTORE PUSH1 0x20 ADD PUSH1 0x0 KECCAK256 DUP2 SWAP1 SSTORE POP JUMP JUMPDEST DUP1 PUSH1 0x1 PUSH1 0x0 PUSH2 0x100 EXP DUP2 SLOAD DUP2 PUSH1 0xFF MUL NOT AND SWAP1 DUP4 PUSH1 0xFF AND MUL OR SWAP1 SSTORE POP POP JUMP JUMPDEST PUSH1 0x1 DUP1 SLOAD SWAP1 PUSH2 0x100 EXP SWAP1 DIV PUSH20 0xFFFFFFFFFFFFFFFFFFFFFFFFFFFFFFFFFFFFFFFF AND DUP2 JUMP JUMPDEST PUSH1 0x0 PUSH1 0x1 PUSH1 0x0 SWAP1 SLOAD SWAP1 PUSH2 0x100 EXP SWAP1 DIV PUSH1 0xFF AND SWAP1 POP SWAP1 JUMP JUMPDEST DUP1 PUSH1 0x0 SWAP1 DUP2 PUSH2 0x303 SWAP2 SWAP1 PUSH2 0x99D JUMP JUMPDEST POP POP JUMP JUMPDEST PUSH1 0x2 PUSH1 0x20 MSTORE DUP1 PUSH1 0x0 MSTORE PUSH1 0x40 PUSH1 0x0 KECCAK256 PUSH1 0x0 SWAP2 POP SWAP1 POP SLOAD DUP2 JUMP JUMPDEST DUP1 PUSH20 0xFFFFFFFFFFFFFFFFFFFFFFFFFFFFFFFFFFFFFFFF AND PUSH2 0x8FC SELFBALANCE SWAP1 DUP2 ISZERO MUL SWAP1 PUSH1 0x40 MLOAD PUSH1 0x0 PUSH1 0x40 MLOAD DUP1 DUP4 SUB DUP2 DUP6 DUP9 DUP9 CALL SWAP4 POP POP POP POP ISZERO DUP1 ISZERO PUSH2 0x365 JUMPI RETURNDATASIZE PUSH1 0x0 DUP1 RETURNDATACOPY RETURNDATASIZE PUSH1 0x0 REVERT JUMPDEST POP POP JUMP JUMPDEST PUSH1 0x0 DUP2 MLOAD SWAP1 POP SWAP2 SWAP1 POP JUMP JUMPDEST PUSH1 0x0 DUP3 DUP3 MSTORE PUSH1 0x20 DUP3 ADD SWAP1 POP SWAP3 SWAP2 POP POP JUMP JUMPDEST PUSH1 0x0 JUMPDEST DUP4 DUP2 LT ISZERO PUSH2 0x3A3 JUMPI DUP1 DUP3 ADD MLOAD DUP2 DUP5 ADD MSTORE PUSH1 0x20 DUP2 ADD SWAP1 POP PUSH2 0x388 JUMP JUMPDEST PUSH1 0x0 DUP5 DUP5 ADD MSTORE POP POP POP POP JUMP JUMPDEST PUSH1 0x0 PUSH1 0x1F NOT PUSH1 0x1F DUP4 ADD AND SWAP1 POP SWAP2 SWAP1 POP JUMP JUMPDEST PUSH1 0x0 PUSH2 0x3CB DUP3 PUSH2 0x369 JUMP JUMPDEST PUSH2 0x3D5 DUP2 DUP6 PUSH2 0x374 JUMP JUMPDEST SWAP4 POP PUSH2 0x3E5 DUP2 DUP6 PUSH1 0x20 DUP7 ADD PUSH2 0x385 JUMP JUMPDEST PUSH2 0x3EE DUP2 PUSH2 0x3AF JUMP JUMPDEST DUP5 ADD SWAP2 POP POP SWAP3 SWAP2 POP POP JUMP JUMPDEST PUSH1 0x0 PUSH1 0x20 DUP3 ADD SWAP1 POP DUP2 DUP2 SUB PUSH1 0x0 DUP4 ADD MSTORE PUSH2 0x413 DUP2 DUP5 PUSH2 0x3C0 JUMP JUMPDEST SWAP1 POP SWAP3 SWAP2 POP POP JUMP JUMPDEST PUSH1 0x0 PUSH1 0x40 MLOAD SWAP1 POP SWAP1 JUMP JUMPDEST PUSH1 0x0 DUP1 REVERT JUMPDEST PUSH1 0x0 DUP1 REVERT JUMPDEST PUSH1 0x0 PUSH1 0xFF DUP3 AND SWAP1 POP SWAP2 SWAP1 POP JUMP JUMPDEST PUSH2 0x445 DUP2 PUSH2 0x42F JUMP JUMPDEST DUP2 EQ PUSH2 0x450 JUMPI PUSH1 0x0 DUP1 REVERT JUMPDEST POP JUMP JUMPDEST PUSH1 0x0 DUP2 CALLDATALOAD SWAP1 POP PUSH2 0x462 DUP2 PUSH2 0x43C JUMP JUMPDEST SWAP3 SWAP2 POP POP JUMP JUMPDEST PUSH1 0x0 PUSH1 0x20 DUP3 DUP5 SUB SLT ISZERO PUSH2 0x47E JUMPI PUSH2 0x47D PUSH2 0x425 JUMP JUMPDEST JUMPDEST PUSH1 0x0 PUSH2 0x48C DUP5 DUP3 DUP6 ADD PUSH2 0x453 JUMP JUMPDEST SWAP2 POP POP SWAP3 SWAP2 POP POP JUMP JUMPDEST PUSH1 0x0 PUSH20 0xFFFFFFFFFFFFFFFFFFFFFFFFFFFFFFFFFFFFFFFF DUP3 AND SWAP1 POP SWAP2 SWAP1 POP JUMP JUMPDEST PUSH1 0x0 PUSH2 0x4C0 DUP3 PUSH2 0x495 JUMP JUMPDEST SWAP1 POP SWAP2 SWAP1 POP JUMP JUMPDEST PUSH2 0x4D0 DUP2 PUSH2 0x4B5 JUMP JUMPDEST DUP3 MSTORE POP POP JUMP JUMPDEST PUSH1 0x0 PUSH1 0x20 DUP3 ADD SWAP1 POP PUSH2 0x4EB PUSH1 0x0 DUP4 ADD DUP5 PUSH2 0x4C7 JUMP JUMPDEST SWAP3 SWAP2 POP POP JUMP JUMPDEST PUSH2 0x4FA DUP2 PUSH2 0x42F JUMP JUMPDEST DUP3 MSTORE POP POP JUMP JUMPDEST PUSH1 0x0 PUSH1 0x20 DUP3 ADD SWAP1 POP PUSH2 0x515 PUSH1 0x0 DUP4 ADD DUP5 PUSH2 0x4F1 JUMP JUMPDEST SWAP3 SWAP2 POP POP JUMP JUMPDEST PUSH1 0x0 DUP1 REVERT JUMPDEST PUSH1 0x0 DUP1 REVERT JUMPDEST PUSH32 0x4E487B7100000000000000000000000000000000000000000000000000000000 PUSH1 0x0 MSTORE PUSH1 0x41 PUSH1 0x4 MSTORE PUSH1 0x24 PUSH1 0x0 REVERT JUMPDEST PUSH2 0x55D DUP3 PUSH2 0x3AF JUMP JUMPDEST DUP2 ADD DUP2 DUP2 LT PUSH8 0xFFFFFFFFFFFFFFFF DUP3 GT OR ISZERO PUSH2 0x57C JUMPI PUSH2 0x57B PUSH2 0x525 JUMP JUMPDEST JUMPDEST DUP1 PUSH1 0x40 MSTORE POP POP POP JUMP JUMPDEST PUSH1 0x0 PUSH2 0x58F PUSH2 0x41B JUMP JUMPDEST SWAP1 POP PUSH2 0x59B DUP3 DUP3 PUSH2 0x554 JUMP JUMPDEST SWAP2 SWAP1 POP JUMP JUMPDEST PUSH1 0x0 PUSH8 0xFFFFFFFFFFFFFFFF DUP3 GT ISZERO PUSH2 0x5BB JUMPI PUSH2 0x5BA PUSH2 0x525 JUMP JUMPDEST JUMPDEST PUSH2 0x5C4 DUP3 PUSH2 0x3AF JUMP JUMPDEST SWAP1 POP PUSH1 0x20 DUP2 ADD SWAP1 POP SWAP2 SWAP1 POP JUMP JUMPDEST DUP3 DUP2 DUP4 CALLDATACOPY PUSH1 0x0 DUP4 DUP4 ADD MSTORE POP POP POP JUMP JUMPDEST PUSH1 0x0 PUSH2 0x5F3 PUSH2 0x5EE DUP5 PUSH2 0x5A0 JUMP JUMPDEST PUSH2 0x585 JUMP JUMPDEST SWAP1 POP DUP3 DUP2 MSTORE PUSH1 0x20 DUP2 ADD DUP5 DUP5 DUP5 ADD GT ISZERO PUSH2 0x60F JUMPI PUSH2 0x60E PUSH2 0x520 JUMP JUMPDEST JUMPDEST PUSH2 0x61A DUP5 DUP3 DUP6 PUSH2 0x5D1 JUMP JUMPDEST POP SWAP4 SWAP3 POP POP POP JUMP JUMPDEST PUSH1 0x0 DUP3 PUSH1 0x1F DUP4 ADD SLT PUSH2 0x637 JUMPI PUSH2 0x636 PUSH2 0x51B JUMP JUMPDEST JUMPDEST DUP2 CALLDATALOAD PUSH2 0x647 DUP5 DUP3 PUSH1 0x20 DUP7 ADD PUSH2 0x5E0 JUMP JUMPDEST SWAP2 POP POP SWAP3 SWAP2 POP POP JUMP JUMPDEST PUSH1 0x0 PUSH1 0x20 DUP3 DUP5 SUB SLT ISZERO PUSH2 0x666 JUMPI PUSH2 0x665 PUSH2 0x425 JUMP JUMPDEST JUMPDEST PUSH1 0x0 DUP3 ADD CALLDATALOAD PUSH8 0xFFFFFFFFFFFFFFFF DUP2 GT ISZERO PUSH2 0x684 JUMPI PUSH2 0x683 PUSH2 0x42A JUMP JUMPDEST JUMPDEST PUSH2 0x690 DUP5 DUP3 DUP6 ADD PUSH2 0x622 JUMP JUMPDEST SWAP2 POP POP SWAP3 SWAP2 POP POP JUMP JUMPDEST PUSH2 0x6A2 DUP2 PUSH2 0x4B5 JUMP JUMPDEST DUP2 EQ PUSH2 0x6AD JUMPI PUSH1 0x0 DUP1 REVERT JUMPDEST POP JUMP JUMPDEST PUSH1 0x0 DUP2 CALLDATALOAD SWAP1 POP PUSH2 0x6BF DUP2 PUSH2 0x699 JUMP JUMPDEST SWAP3 SWAP2 POP POP JUMP JUMPDEST PUSH1 0x0 PUSH1 0x20 DUP3 DUP5 SUB SLT ISZERO PUSH2 0x6DB JUMPI PUSH2 0x6DA PUSH2 0x425 JUMP JUMPDEST JUMPDEST PUSH1 0x0 PUSH2 0x6E9 DUP5 DUP3 DUP6 ADD PUSH2 0x6B0 JUMP JUMPDEST SWAP2 POP POP SWAP3 SWAP2 POP POP JUMP JUMPDEST PUSH1 0x0 DUP2 SWAP1 POP SWAP2 SWAP1 POP JUMP JUMPDEST PUSH2 0x705 DUP2 PUSH2 0x6F2 JUMP JUMPDEST DUP3 MSTORE POP POP JUMP JUMPDEST PUSH1 0x0 PUSH1 0x20 DUP3 ADD SWAP1 POP PUSH2 0x720 PUSH1 0x0 DUP4 ADD DUP5 PUSH2 0x6FC JUMP JUMPDEST SWAP3 SWAP2 POP POP JUMP JUMPDEST PUSH1 0x0 PUSH2 0x731 DUP3 PUSH2 0x495 JUMP JUMPDEST SWAP1 POP SWAP2 SWAP1 POP JUMP JUMPDEST PUSH2 0x741 DUP2 PUSH2 0x726 JUMP JUMPDEST DUP2 EQ PUSH2 0x74C JUMPI PUSH1 0x0 DUP1 REVERT JUMPDEST POP JUMP JUMPDEST PUSH1 0x0 DUP2 CALLDATALOAD SWAP1 POP PUSH2 0x75E DUP2 PUSH2 0x738 JUMP JUMPDEST SWAP3 SWAP2 POP POP JUMP JUMPDEST PUSH1 0x0 PUSH1 0x20 DUP3 DUP5 SUB SLT ISZERO PUSH2 0x77A JUMPI PUSH2 0x779 PUSH2 0x425 JUMP JUMPDEST JUMPDEST PUSH1 0x0 PUSH2 0x788 DUP5 DUP3 DUP6 ADD PUSH2 0x74F JUMP JUMPDEST SWAP2 POP POP SWAP3 SWAP2 POP POP JUMP JUMPDEST PUSH32 0x4E487B7100000000000000000000000000000000000000000000000000000000 PUSH1 0x0 MSTORE PUSH1 0x22 PUSH1 0x4 MSTORE PUSH1 0x24 PUSH1 0x0 REVERT JUMPDEST PUSH1 0x0 PUSH1 0x2 DUP3 DIV SWAP1 POP PUSH1 0x1 DUP3 AND DUP1 PUSH2 0x7D8 JUMPI PUSH1 0x7F DUP3 AND SWAP2 POP JUMPDEST PUSH1 0x20 DUP3 LT DUP2 SUB PUSH2 0x7EB JUMPI PUSH2 0x7EA PUSH2 0x791 JUMP JUMPDEST JUMPDEST POP SWAP2 SWAP1 POP JUMP JUMPDEST PUSH1 0x0 DUP2 SWAP1 POP DUP2 PUSH1 0x0 MSTORE PUSH1 0x20 PUSH1 0x0 KECCAK256 SWAP1 POP SWAP2 SWAP1 POP JUMP JUMPDEST PUSH1 0x0 PUSH1 0x20 PUSH1 0x1F DUP4 ADD DIV SWAP1 POP SWAP2 SWAP1 POP JUMP JUMPDEST PUSH1 0x0 DUP3 DUP3 SHL SWAP1 POP SWAP3 SWAP2 POP POP JUMP JUMPDEST PUSH1 0x0 PUSH1 0x8 DUP4 MUL PUSH2 0x853 PUSH32 0xFFFFFFFFFFFFFFFFFFFFFFFFFFFFFFFFFFFFFFFFFFFFFFFFFFFFFFFFFFFFFFFF DUP3 PUSH2 0x816 JUMP JUMPDEST PUSH2 0x85D DUP7 DUP4 PUSH2 0x816 JUMP JUMPDEST SWAP6 POP DUP1 NOT DUP5 AND SWAP4 POP DUP1 DUP7 AND DUP5 OR SWAP3 POP POP POP SWAP4 SWAP3 POP POP POP JUMP JUMPDEST PUSH1 0x0 DUP2 SWAP1 POP SWAP2 SWAP1 POP JUMP JUMPDEST PUSH1 0x0 PUSH2 0x89A PUSH2 0x895 PUSH2 0x890 DUP5 PUSH2 0x6F2 JUMP JUMPDEST PUSH2 0x875 JUMP JUMPDEST PUSH2 0x6F2 JUMP JUMPDEST SWAP1 POP SWAP2 SWAP1 POP JUMP JUMPDEST PUSH1 0x0 DUP2 SWAP1 POP SWAP2 SWAP1 POP JUMP JUMPDEST PUSH2 0x8B4 DUP4 PUSH2 0x87F JUMP JUMPDEST PUSH2 0x8C8 PUSH2 0x8C0 DUP3 PUSH2 0x8A1 JUMP JUMPDEST DUP5 DUP5 SLOAD PUSH2 0x823 JUMP JUMPDEST DUP3 SSTORE POP POP POP POP JUMP JUMPDEST PUSH1 0x0 SWAP1 JUMP JUMPDEST PUSH2 0x8DD PUSH2 0x8D0 JUMP JUMPDEST PUSH2 0x8E8 DUP2 DUP5 DUP5 PUSH2 0x8AB JUMP JUMPDEST POP POP POP JUMP JUMPDEST JUMPDEST DUP2 DUP2 LT ISZERO PUSH2 0x90C JUMPI PUSH2 0x901 PUSH1 0x0 DUP3 PUSH2 0x8D5 JUMP JUMPDEST PUSH1 0x1 DUP2 ADD SWAP1 POP PUSH2 0x8EE JUMP JUMPDEST POP POP JUMP JUMPDEST PUSH1 0x1F DUP3 GT ISZERO PUSH2 0x951 JUMPI PUSH2 0x922 DUP2 PUSH2 0x7F1 JUMP JUMPDEST PUSH2 0x92B DUP5 PUSH2 0x806 JUMP JUMPDEST DUP2 ADD PUSH1 0x20 DUP6 LT ISZERO PUSH2 0x93A JUMPI DUP2 SWAP1 POP JUMPDEST PUSH2 0x94E PUSH2 0x946 DUP6 PUSH2 0x806 JUMP JUMPDEST DUP4 ADD DUP3 PUSH2 0x8ED JUMP JUMPDEST POP POP JUMPDEST POP POP POP JUMP JUMPDEST PUSH1 0x0 DUP3 DUP3 SHR SWAP1 POP SWAP3 SWAP2 POP POP JUMP JUMPDEST PUSH1 0x0 PUSH2 0x974 PUSH1 0x0 NOT DUP5 PUSH1 0x8 MUL PUSH2 0x956 JUMP JUMPDEST NOT DUP1 DUP4 AND SWAP2 POP POP SWAP3 SWAP2 POP POP JUMP JUMPDEST PUSH1 0x0 PUSH2 0x98D DUP4 DUP4 PUSH2 0x963 JUMP JUMPDEST SWAP2 POP DUP3 PUSH1 0x2 MUL DUP3 OR SWAP1 POP SWAP3 SWAP2 POP POP JUMP JUMPDEST PUSH2 0x9A6 DUP3 PUSH2 0x369 JUMP JUMPDEST PUSH8 0xFFFFFFFFFFFFFFFF DUP2 GT ISZERO PUSH2 0x9BF JUMPI PUSH2 0x9BE PUSH2 0x525 JUMP JUMPDEST JUMPDEST PUSH2 0x9C9 DUP3 SLOAD PUSH2 0x7C0 JUMP JUMPDEST PUSH2 0x9D4 DUP3 DUP3 DUP6 PUSH2 0x910 JUMP JUMPDEST PUSH1 0x0 PUSH1 0x20 SWAP1 POP PUSH1 0x1F DUP4 GT PUSH1 0x1 DUP2 EQ PUSH2 0xA07 JUMPI PUSH1 0x0 DUP5 ISZERO PUSH2 0x9F5 JUMPI DUP3 DUP8 ADD MLOAD SWAP1 POP JUMPDEST PUSH2 0x9FF DUP6 DUP3 PUSH2 0x981 JUMP JUMPDEST DUP7 SSTORE POP PUSH2 0xA67 JUMP JUMPDEST PUSH1 0x1F NOT DUP5 AND PUSH2 0xA15 DUP7 PUSH2 0x7F1 JUMP JUMPDEST PUSH1 0x0 JUMPDEST DUP3 DUP2 LT ISZERO PUSH2 0xA3D JUMPI DUP5 DUP10 ADD MLOAD DUP3 SSTORE PUSH1 0x1 DUP3 ADD SWAP2 POP PUSH1 0x20 DUP6 ADD SWAP5 POP PUSH1 0x20 DUP2 ADD SWAP1 POP PUSH2 0xA18 JUMP JUMPDEST DUP7 DUP4 LT ISZERO PUSH2 0xA5A JUMPI DUP5 DUP10 ADD MLOAD PUSH2 0xA56 PUSH1 0x1F DUP10 AND DUP3 PUSH2 0x963 JUMP JUMPDEST DUP4 SSTORE POP JUMPDEST PUSH1 0x1 PUSH1 0x2 DUP9 MUL ADD DUP9 SSTORE POP POP POP JUMPDEST POP POP POP POP POP POP JUMP INVALID LOG2 PUSH5 0x6970667358 0x22 SLT KECCAK256 SWAP13 DUP10 0xE1 0xD5 STATICCALL 0xB4 CALL 0xD8 DUP9 0xB0 0x21 0xE MOD INVALID JUMPDEST RETURNDATASIZE 0x4A EQ SLT 0xBA 0x1F DUP5 BASEFEE 0xE3 0xDA DUP6 0xED SHR 0xB9 GASLIMIT 0x49 0xE4 PUSH5 0x736F6C6343 STOP ADDMOD SLT STOP CALLER "
				},
				"gasEstimates": {
					"creation": {
						"codeDepositCost": "545000",
						"executionCost": "24897",
						"totalCost": "569897"
					},
					"external": {
						"getAge()": "2479",
						"getName()": "infinite",
						"owner()": "2628",
						"pay()": "22345",
						"payments(address)": "2858",
						"setAge(uint8)": "24724",
						"setName(string)": "infinite",
						"withdrawAll(address)": "infinite"
					}
				},
				"methodIdentifiers": {
					"getAge()": "967e6e65",
					"getName()": "17d7de7c",
					"owner()": "8da5cb5b",
					"pay()": "1b9265b8",
					"payments(address)": "e2982c21",
					"setAge(uint8)": "5b0c8d70",
					"setName(string)": "c47f0027",
					"withdrawAll(address)": "fa09e630"
				}
			},
			"storageLayout": {
				"storage": [
					{
						"astId": 3,
						"contract": "Demo.sol:DemoContract",
						"label": "name",
						"offset": 0,
						"slot": "0",
						"type": "t_string_storage"
					},
					{
						"astId": 5,
						"contract": "Demo.sol:DemoContract",
						"label": "age",
						"offset": 0,
						"slot": "1",
						"type": "t_uint8"
					},
					{
						"astId": 7,
						"contract": "Demo.sol:DemoContract",
						"label": "owner",
						"offset": 1,
						"slot": "1",
						"type": "t_address"
					},
					{
						"astId": 11,
						"contract": "Demo.sol:DemoContract",
						"label": "payments",
						"offset": 0,
						"slot": "2",
						"type": "t_mapping(t_address,t_uint256)"
					}
				],
				"types": {
					"t_address": {
						"encoding": "inplace",
						"label": "address",
						"numberOfBytes": "20"
					},
					"t_mapping(t_address,t_uint256)": {
						"encoding": "mapping",
						"key": "t_address",
						"label": "mapping(address => uint256)",
						"numberOfBytes": "32",
						"value": "t_uint256"
					},
					"t_string_storage": {
						"encoding": "bytes",
						"label": "string",
						"numberOfBytes": "32"
					},
					"t_uint256": {
						"encoding": "inplace",
						"label": "uint256",
						"numberOfBytes": "32"
					},
					"t_uint8": {
						"encoding": "inplace",
						"label": "uint8",
						"numberOfBytes": "1"
					}
				}
			},
			"userdoc": {
				"kind": "user",
				"methods": {},
				"version": 1
			}
		}
	}
}